{
  "contractName": "SuperHToken",
  "abi": [
    {
      "inputs": [],
      "stateMutability": "nonpayable",
      "type": "constructor"
    },
    {
      "anonymous": false,
      "inputs": [
        {
          "indexed": true,
          "internalType": "address",
          "name": "owner",
          "type": "address"
        },
        {
          "indexed": true,
          "internalType": "address",
          "name": "spender",
          "type": "address"
        },
        {
          "indexed": false,
          "internalType": "uint256",
          "name": "value",
          "type": "uint256"
        }
      ],
      "name": "Approval",
      "type": "event"
    },
    {
      "anonymous": false,
      "inputs": [
        {
          "indexed": true,
          "internalType": "address",
          "name": "previousOwner",
          "type": "address"
        },
        {
          "indexed": true,
          "internalType": "address",
          "name": "newOwner",
          "type": "address"
        }
      ],
      "name": "OwnershipTransferred",
      "type": "event"
    },
    {
      "anonymous": false,
      "inputs": [
        {
          "indexed": true,
          "internalType": "address",
          "name": "from",
          "type": "address"
        },
        {
          "indexed": true,
          "internalType": "address",
          "name": "to",
          "type": "address"
        },
        {
          "indexed": false,
          "internalType": "uint256",
          "name": "value",
          "type": "uint256"
        }
      ],
      "name": "Transfer",
      "type": "event"
    },
    {
      "inputs": [],
      "name": "CHARITY_ADDRESS",
      "outputs": [
        {
          "internalType": "address",
          "name": "",
          "type": "address"
        }
      ],
      "stateMutability": "view",
      "type": "function",
      "constant": true
    },
    {
      "inputs": [],
      "name": "_charityFee",
      "outputs": [
        {
          "internalType": "uint256",
          "name": "",
          "type": "uint256"
        }
      ],
      "stateMutability": "view",
      "type": "function",
      "constant": true
    },
    {
      "inputs": [],
      "name": "_liquidityFee",
      "outputs": [
        {
          "internalType": "uint256",
          "name": "",
          "type": "uint256"
        }
      ],
      "stateMutability": "view",
      "type": "function",
      "constant": true
    },
    {
      "inputs": [],
      "name": "_maxTxAmount",
      "outputs": [
        {
          "internalType": "uint256",
          "name": "",
          "type": "uint256"
        }
      ],
      "stateMutability": "view",
      "type": "function",
      "constant": true
    },
    {
      "inputs": [],
      "name": "_taxFee",
      "outputs": [
        {
          "internalType": "uint256",
          "name": "",
          "type": "uint256"
        }
      ],
      "stateMutability": "view",
      "type": "function",
      "constant": true
    },
    {
      "inputs": [],
      "name": "geUnlockTime",
      "outputs": [
        {
          "internalType": "uint256",
          "name": "",
          "type": "uint256"
        }
      ],
      "stateMutability": "view",
      "type": "function",
      "constant": true
    },
    {
      "inputs": [
        {
          "internalType": "uint256",
          "name": "time",
          "type": "uint256"
        }
      ],
      "name": "lock",
      "outputs": [],
      "stateMutability": "nonpayable",
      "type": "function"
    },
    {
      "inputs": [],
      "name": "owner",
      "outputs": [
        {
          "internalType": "address",
          "name": "",
          "type": "address"
        }
      ],
      "stateMutability": "view",
      "type": "function",
      "constant": true
    },
    {
      "inputs": [],
      "name": "renounceOwnership",
      "outputs": [],
      "stateMutability": "nonpayable",
      "type": "function"
    },
    {
      "inputs": [
        {
          "internalType": "address",
          "name": "newOwner",
          "type": "address"
        }
      ],
      "name": "transferOwnership",
      "outputs": [],
      "stateMutability": "nonpayable",
      "type": "function"
    },
    {
      "inputs": [],
      "name": "unlock",
      "outputs": [],
      "stateMutability": "nonpayable",
      "type": "function"
    },
    {
      "stateMutability": "payable",
      "type": "receive",
      "payable": true
    },
    {
      "inputs": [],
      "name": "name",
      "outputs": [
        {
          "internalType": "string",
          "name": "",
          "type": "string"
        }
      ],
      "stateMutability": "view",
      "type": "function",
      "constant": true
    },
    {
      "inputs": [],
      "name": "symbol",
      "outputs": [
        {
          "internalType": "string",
          "name": "",
          "type": "string"
        }
      ],
      "stateMutability": "view",
      "type": "function",
      "constant": true
    },
    {
      "inputs": [],
      "name": "decimals",
      "outputs": [
        {
          "internalType": "uint8",
          "name": "",
          "type": "uint8"
        }
      ],
      "stateMutability": "view",
      "type": "function",
      "constant": true
    },
    {
      "inputs": [],
      "name": "totalSupply",
      "outputs": [
        {
          "internalType": "uint256",
          "name": "",
          "type": "uint256"
        }
      ],
      "stateMutability": "view",
      "type": "function",
      "constant": true
    },
    {
      "inputs": [
        {
          "internalType": "address",
          "name": "account",
          "type": "address"
        }
      ],
      "name": "balanceOf",
      "outputs": [
        {
          "internalType": "uint256",
          "name": "",
          "type": "uint256"
        }
      ],
      "stateMutability": "view",
      "type": "function",
      "constant": true
    },
    {
      "inputs": [
        {
          "internalType": "address",
          "name": "recipient",
          "type": "address"
        },
        {
          "internalType": "uint256",
          "name": "amount",
          "type": "uint256"
        }
      ],
      "name": "transfer",
      "outputs": [
        {
          "internalType": "bool",
          "name": "",
          "type": "bool"
        }
      ],
      "stateMutability": "nonpayable",
      "type": "function"
    },
    {
      "inputs": [
        {
          "internalType": "address",
          "name": "owner",
          "type": "address"
        },
        {
          "internalType": "address",
          "name": "spender",
          "type": "address"
        }
      ],
      "name": "allowance",
      "outputs": [
        {
          "internalType": "uint256",
          "name": "",
          "type": "uint256"
        }
      ],
      "stateMutability": "view",
      "type": "function",
      "constant": true
    },
    {
      "inputs": [
        {
          "internalType": "address",
          "name": "spender",
          "type": "address"
        },
        {
          "internalType": "uint256",
          "name": "amount",
          "type": "uint256"
        }
      ],
      "name": "approve",
      "outputs": [
        {
          "internalType": "bool",
          "name": "",
          "type": "bool"
        }
      ],
      "stateMutability": "nonpayable",
      "type": "function"
    },
    {
      "inputs": [
        {
          "internalType": "address",
          "name": "sender",
          "type": "address"
        },
        {
          "internalType": "address",
          "name": "recipient",
          "type": "address"
        },
        {
          "internalType": "uint256",
          "name": "amount",
          "type": "uint256"
        }
      ],
      "name": "transferFrom",
      "outputs": [
        {
          "internalType": "bool",
          "name": "",
          "type": "bool"
        }
      ],
      "stateMutability": "nonpayable",
      "type": "function"
    },
    {
      "inputs": [
        {
          "internalType": "address",
          "name": "spender",
          "type": "address"
        },
        {
          "internalType": "uint256",
          "name": "addedValue",
          "type": "uint256"
        }
      ],
      "name": "increaseAllowance",
      "outputs": [
        {
          "internalType": "bool",
          "name": "",
          "type": "bool"
        }
      ],
      "stateMutability": "nonpayable",
      "type": "function"
    },
    {
      "inputs": [
        {
          "internalType": "address",
          "name": "spender",
          "type": "address"
        },
        {
          "internalType": "uint256",
          "name": "subtractedValue",
          "type": "uint256"
        }
      ],
      "name": "decreaseAllowance",
      "outputs": [
        {
          "internalType": "bool",
          "name": "",
          "type": "bool"
        }
      ],
      "stateMutability": "nonpayable",
      "type": "function"
    },
    {
      "inputs": [
        {
          "internalType": "address",
          "name": "account",
          "type": "address"
        }
      ],
      "name": "isExcludedFromReward",
      "outputs": [
        {
          "internalType": "bool",
          "name": "",
          "type": "bool"
        }
      ],
      "stateMutability": "view",
      "type": "function",
      "constant": true
    },
    {
      "inputs": [],
      "name": "totalFees",
      "outputs": [
        {
          "internalType": "uint256",
          "name": "",
          "type": "uint256"
        }
      ],
      "stateMutability": "view",
      "type": "function",
      "constant": true
    },
    {
      "inputs": [
        {
          "internalType": "uint256",
          "name": "tAmount",
          "type": "uint256"
        }
      ],
      "name": "deliver",
      "outputs": [],
      "stateMutability": "nonpayable",
      "type": "function"
    },
    {
      "inputs": [
        {
          "internalType": "uint256",
          "name": "tAmount",
          "type": "uint256"
        },
        {
          "internalType": "bool",
          "name": "deductTransferFee",
          "type": "bool"
        }
      ],
      "name": "reflectionFromToken",
      "outputs": [
        {
          "internalType": "uint256",
          "name": "",
          "type": "uint256"
        }
      ],
      "stateMutability": "view",
      "type": "function",
      "constant": true
    },
    {
      "inputs": [
        {
          "internalType": "uint256",
          "name": "rAmount",
          "type": "uint256"
        }
      ],
      "name": "tokenFromReflection",
      "outputs": [
        {
          "internalType": "uint256",
          "name": "",
          "type": "uint256"
        }
      ],
      "stateMutability": "view",
      "type": "function",
      "constant": true
    },
    {
      "inputs": [
        {
          "internalType": "address",
          "name": "account",
          "type": "address"
        }
      ],
      "name": "excludeFromReward",
      "outputs": [],
      "stateMutability": "nonpayable",
      "type": "function"
    },
    {
      "inputs": [
        {
          "internalType": "address",
          "name": "account",
          "type": "address"
        }
      ],
      "name": "includeInReward",
      "outputs": [],
      "stateMutability": "nonpayable",
      "type": "function"
    },
    {
      "inputs": [
        {
          "internalType": "address",
          "name": "account",
          "type": "address"
        }
      ],
      "name": "excludeFromFee",
      "outputs": [],
      "stateMutability": "nonpayable",
      "type": "function"
    },
    {
      "inputs": [
        {
          "internalType": "address",
          "name": "account",
          "type": "address"
        }
      ],
      "name": "includeInFee",
      "outputs": [],
      "stateMutability": "nonpayable",
      "type": "function"
    },
    {
      "inputs": [
        {
          "internalType": "uint256",
          "name": "taxFee",
          "type": "uint256"
        },
        {
          "internalType": "uint256",
          "name": "liquidityFee",
          "type": "uint256"
        },
        {
          "internalType": "uint256",
          "name": "charityFee",
          "type": "uint256"
        }
      ],
      "name": "setFeePercent",
      "outputs": [],
      "stateMutability": "nonpayable",
      "type": "function"
    },
    {
      "inputs": [
        {
          "internalType": "uint256",
          "name": "maxTxPercent",
          "type": "uint256"
        }
      ],
      "name": "setMaxTxPercent",
      "outputs": [],
      "stateMutability": "nonpayable",
      "type": "function"
    },
    {
      "inputs": [
        {
          "internalType": "address",
          "name": "account",
          "type": "address"
        }
      ],
      "name": "isExcludedFromFee",
      "outputs": [
        {
          "internalType": "bool",
          "name": "",
          "type": "bool"
        }
      ],
      "stateMutability": "view",
      "type": "function",
      "constant": true
    }
  ],
  "bytecode": "0x608060405269152d02c7e14af680000060098190556200002290600019620002ad565b62000030906000196200024c565b600a55601e600d55604080518082019091526006808252650a6eae0cae4960d31b60209092019182526200006791600e91620001a6565b50604080518082019091526004808252630a6aaa0960e31b60209092019182526200009591600f91620001a6565b506010805460ff19166009179055600360118190556012819055601381905560148190556015819055601655681b1ae4d6e2ef500000601755348015620000db57600080fd5b50600080546001600160a01b031916339081178255604051909182917f8be0079c531659141344cd1fd0a4f28419497f9722a3daafe3b4186f6b6457e0908290a350600a543360008181526003602090815260408083209490945581546001600160a01b03168252600681528382208054600160ff199182168117909255308452858420805490911690911790556009549351938452919290917fddf252ad1be2c89b69c2b068fc378daa952ba7f163c4a11628f55a4df523b3ef910160405180910390a3620002ce565b828054620001b49062000270565b90600052602060002090601f016020900481019282620001d8576000855562000223565b82601f10620001f357805160ff191683800117855562000223565b8280016001018555821562000223579182015b828111156200022357825182559160200191906001019062000206565b506200023192915062000235565b5090565b5b8082111562000231576000815560010162000236565b6000828210156200026b57634e487b7160e01b81526011600452602481fd5b500390565b600181811c908216806200028557607f821691505b60208210811415620002a757634e487b7160e01b600052602260045260246000fd5b50919050565b600082620002c957634e487b7160e01b81526012600452602481fd5b500690565b6123f980620002de6000396000f3fe6080604052600436106101fd5760003560e01c80636bc87c3a1161010d578063a69df4b5116100a0578063d543dbeb1161006f578063d543dbeb146105b4578063dd467064146105d4578063dd62ed3e146105f4578063ea2f0b371461063a578063f2fde38b1461065a57600080fd5b8063a69df4b514610542578063a9059cbb14610557578063b6c5232414610577578063c9330fdc1461058c57600080fd5b806388f82020116100dc57806388f82020146104a25780638da5cb5b146104db57806395d89b411461050d578063a457c2d71461052257600080fd5b80636bc87c3a1461044157806370a0823114610457578063715018a6146104775780637d1db4a51461048c57600080fd5b80633950935111610190578063437823ec1161015f578063437823ec146103885780634549b039146103a857806352390c02146103c85780635342acb4146103e85780636ac3f2541461042157600080fd5b8063395093511461031c5780633b124fe71461033c5780633bd5d1731461035257806340f8007a1461037257600080fd5b806323b872dd116101cc57806323b872dd146102985780632d838119146102b8578063313ce567146102d85780633685d419146102fa57600080fd5b806306fdde0314610209578063095ea7b31461023457806313114a9d1461026457806318160ddd1461028357600080fd5b3661020457005b600080fd5b34801561021557600080fd5b5061021e61067a565b60405161022b91906121f4565b60405180910390f35b34801561024057600080fd5b5061025461024f366004612155565b61070c565b604051901515815260200161022b565b34801561027057600080fd5b50600b545b60405190815260200161022b565b34801561028f57600080fd5b50600954610275565b3480156102a457600080fd5b506102546102b336600461211a565b610723565b3480156102c457600080fd5b506102756102d336600461217e565b61078c565b3480156102e457600080fd5b5060105460405160ff909116815260200161022b565b34801561030657600080fd5b5061031a6103153660046120ce565b610815565b005b34801561032857600080fd5b50610254610337366004612155565b610a04565b34801561034857600080fd5b5061027560115481565b34801561035e57600080fd5b5061031a61036d36600461217e565b610a3a565b34801561037e57600080fd5b5061027560155481565b34801561039457600080fd5b5061031a6103a33660046120ce565b610b26565b3480156103b457600080fd5b506102756103c3366004612196565b610b74565b3480156103d457600080fd5b5061031a6103e33660046120ce565b610c03565b3480156103f457600080fd5b506102546104033660046120ce565b6001600160a01b031660009081526006602052604090205460ff1690565b34801561042d57600080fd5b5061031a61043c3660046121c9565b610d56565b34801561044d57600080fd5b5061027560135481565b34801561046357600080fd5b506102756104723660046120ce565b610d8e565b34801561048357600080fd5b5061031a610ded565b34801561049857600080fd5b5061027560175481565b3480156104ae57600080fd5b506102546104bd3660046120ce565b6001600160a01b031660009081526007602052604090205460ff1690565b3480156104e757600080fd5b506000546001600160a01b03165b6040516001600160a01b03909116815260200161022b565b34801561051957600080fd5b5061021e610e4f565b34801561052e57600080fd5b5061025461053d366004612155565b610e5e565b34801561054e57600080fd5b5061031a610ead565b34801561056357600080fd5b50610254610572366004612155565b610fb2565b34801561058357600080fd5b50600254610275565b34801561059857600080fd5b506104f5731021910af0f9e86277b12a8194eb0c9954380eb181565b3480156105c057600080fd5b5061031a6105cf36600461217e565b610fbf565b3480156105e057600080fd5b5061031a6105ef36600461217e565b61100f565b34801561060057600080fd5b5061027561060f3660046120e8565b6001600160a01b03918216600090815260056020908152604080832093909416825291909152205490565b34801561064657600080fd5b5061031a6106553660046120ce565b611094565b34801561066657600080fd5b5061031a6106753660046120ce565b6110df565b6060600e8054610689906122ea565b80601f01602080910402602001604051908101604052809291908181526020018280546106b5906122ea565b80156107025780601f106106d757610100808354040283529160200191610702565b820191906000526020600020905b8154815290600101906020018083116106e557829003601f168201915b5050505050905090565b60006107193384846111b7565b5060015b92915050565b6000610777843361077285604051806060016040528060288152602001612357602891396001600160a01b038a16600090815260056020908152604080832033845290915290205491906112db565b6111b7565b610782848484611315565b5060019392505050565b6000600a548211156107f85760405162461bcd60e51b815260206004820152602a60248201527f416d6f756e74206d757374206265206c657373207468616e20746f74616c207260448201526965666c656374696f6e7360b01b60648201526084015b60405180910390fd5b600061080261152e565b905061080e8382611551565b9392505050565b6000546001600160a01b0316331461083f5760405162461bcd60e51b81526004016107ef90612247565b6001600160a01b03811660009081526007602052604090205460ff166108a75760405162461bcd60e51b815260206004820152601b60248201527f4163636f756e7420697320616c7265616479206578636c75646564000000000060448201526064016107ef565b60005b600854811015610a0057816001600160a01b0316600882815481106108df57634e487b7160e01b600052603260045260246000fd5b6000918252602090912001546001600160a01b031614156109ee576008805461090a906001906122d3565b8154811061092857634e487b7160e01b600052603260045260246000fd5b600091825260209091200154600880546001600160a01b03909216918390811061096257634e487b7160e01b600052603260045260246000fd5b600091825260208083209190910180546001600160a01b0319166001600160a01b039485161790559184168152600482526040808220829055600790925220805460ff1916905560088054806109c857634e487b7160e01b600052603160045260246000fd5b600082815260209020810160001990810180546001600160a01b03191690550190555050565b806109f881612325565b9150506108aa565b5050565b3360008181526005602090815260408083206001600160a01b038716845290915281205490916107199185906107729086611593565b3360008181526007602052604090205460ff1615610aaf5760405162461bcd60e51b815260206004820152602c60248201527f4578636c75646564206164647265737365732063616e6e6f742063616c6c207460448201526b3434b990333ab731ba34b7b760a11b60648201526084016107ef565b6000610aba836115f2565b5050506001600160a01b038616600090815260036020526040902054939450610ae89392508491505061164d565b6001600160a01b038316600090815260036020526040902055600a54610b0e908261164d565b600a55600b54610b1e9084611593565b600b55505050565b6000546001600160a01b03163314610b505760405162461bcd60e51b81526004016107ef90612247565b6001600160a01b03166000908152600660205260409020805460ff19166001179055565b6000600954831115610bc85760405162461bcd60e51b815260206004820152601f60248201527f416d6f756e74206d757374206265206c657373207468616e20737570706c790060448201526064016107ef565b81610be8576000610bd8846115f2565b5094965061071d95505050505050565b6000610bf3846115f2565b5093965061071d95505050505050565b6000546001600160a01b03163314610c2d5760405162461bcd60e51b81526004016107ef90612247565b6001600160a01b03811660009081526007602052604090205460ff1615610c965760405162461bcd60e51b815260206004820152601b60248201527f4163636f756e7420697320616c7265616479206578636c75646564000000000060448201526064016107ef565b6001600160a01b03811660009081526003602052604090205415610cf0576001600160a01b038116600090815260036020526040902054610cd69061078c565b6001600160a01b0382166000908152600460205260409020555b6001600160a01b03166000818152600760205260408120805460ff191660019081179091556008805491820181559091527ff3f7a9fe364faab93b216da50a3214154f22a0a2b415b23a84c8169e8b636ee30180546001600160a01b0319169091179055565b6000546001600160a01b03163314610d805760405162461bcd60e51b81526004016107ef90612247565b601192909255601355601555565b6001600160a01b03811660009081526007602052604081205460ff1615610dcb57506001600160a01b031660009081526004602052604090205490565b6001600160a01b03821660009081526003602052604090205461071d9061078c565b6000546001600160a01b03163314610e175760405162461bcd60e51b81526004016107ef90612247565b600080546040516001600160a01b039091169060008051602061237f833981519152908390a3600080546001600160a01b0319169055565b6060600f8054610689906122ea565b600061071933846107728560405180606001604052806025815260200161239f602591393360009081526005602090815260408083206001600160a01b038d16845290915290205491906112db565b6001546001600160a01b03163314610f125760405162461bcd60e51b815260206004820152602260248201527f596f7520646f6e742068617665207065726d697373696f6e20746f20756e6c6f604482015261636b60f01b60648201526084016107ef565b6002544211610f635760405162461bcd60e51b815260206004820181905260248201527f436f6e7472616374206973206c6f636b656420666f72206d6f72652074696d6560448201526064016107ef565b600154600080546040516001600160a01b03938416939091169160008051602061237f83398151915291a3600154600080546001600160a01b0319166001600160a01b03909216919091179055565b6000610719338484611315565b6000546001600160a01b03163314610fe95760405162461bcd60e51b81526004016107ef90612247565b61100960646110038360095461168f90919063ffffffff16565b90611551565b60175550565b6000546001600160a01b031633146110395760405162461bcd60e51b81526004016107ef90612247565b60008054600180546001600160a01b03199081166001600160a01b03841617909155169055611068814261227c565b600255600080546040516001600160a01b039091169060008051602061237f833981519152908390a350565b6000546001600160a01b031633146110be5760405162461bcd60e51b81526004016107ef90612247565b6001600160a01b03166000908152600660205260409020805460ff19169055565b6000546001600160a01b031633146111095760405162461bcd60e51b81526004016107ef90612247565b6001600160a01b03811661116e5760405162461bcd60e51b815260206004820152602660248201527f4f776e61626c653a206e6577206f776e657220697320746865207a65726f206160448201526564647265737360d01b60648201526084016107ef565b600080546040516001600160a01b038085169392169160008051602061237f83398151915291a3600080546001600160a01b0319166001600160a01b0392909216919091179055565b6001600160a01b0383166112195760405162461bcd60e51b8152602060048201526024808201527f45524332303a20617070726f76652066726f6d20746865207a65726f206164646044820152637265737360e01b60648201526084016107ef565b6001600160a01b03821661127a5760405162461bcd60e51b815260206004820152602260248201527f45524332303a20617070726f766520746f20746865207a65726f206164647265604482015261737360f01b60648201526084016107ef565b6001600160a01b0383811660008181526005602090815260408083209487168084529482529182902085905590518481527f8c5be1e5ebec7d5bd14f71427d1e84f3dd0314c0f7b2291e5b200ac8c7c3b925910160405180910390a3505050565b600081848411156112ff5760405162461bcd60e51b81526004016107ef91906121f4565b50600061130c84866122d3565b95945050505050565b6001600160a01b0383166113795760405162461bcd60e51b815260206004820152602560248201527f45524332303a207472616e736665722066726f6d20746865207a65726f206164604482015264647265737360d81b60648201526084016107ef565b6001600160a01b0382166113db5760405162461bcd60e51b815260206004820152602360248201527f45524332303a207472616e7366657220746f20746865207a65726f206164647260448201526265737360e81b60648201526084016107ef565b6000811161143d5760405162461bcd60e51b815260206004820152602960248201527f5472616e7366657220616d6f756e74206d7573742062652067726561746572206044820152687468616e207a65726f60b81b60648201526084016107ef565b6000546001600160a01b0384811691161480159061146957506000546001600160a01b03838116911614155b156114d1576017548111156114d15760405162461bcd60e51b815260206004820152602860248201527f5472616e7366657220616d6f756e74206578636565647320746865206d6178546044820152673c20b6b7bab73a1760c11b60648201526084016107ef565b6001600160a01b03831660009081526006602052604090205460019060ff168061151357506001600160a01b03831660009081526006602052604090205460ff165b1561151c575060005b6115288484848461170e565b50505050565b600080600061153b61188b565b909250905061154a8282611551565b9250505090565b600061080e83836040518060400160405280601a81526020017f536166654d6174683a206469766973696f6e206279207a65726f000000000000815250611a45565b6000806115a0838561227c565b90508381101561080e5760405162461bcd60e51b815260206004820152601b60248201527f536166654d6174683a206164646974696f6e206f766572666c6f77000000000060448201526064016107ef565b600080600080600080600080600080600061160c8c611a73565b9350935093509350600080600061162d8f87878761162861152e565b611ac8565b919f509d509b509599509397509195509350505050919395979092949650565b600061080e83836040518060400160405280601e81526020017f536166654d6174683a207375627472616374696f6e206f766572666c6f7700008152506112db565b60008261169e5750600061071d565b60006116aa83856122b4565b9050826116b78583612294565b1461080e5760405162461bcd60e51b815260206004820152602160248201527f536166654d6174683a206d756c7469706c69636174696f6e206f766572666c6f6044820152607760f81b60648201526084016107ef565b8061171b5761171b611b2a565b6001600160a01b03841660009081526007602052604090205460ff16801561175c57506001600160a01b03831660009081526007602052604090205460ff16155b156117715761176c848484611b6f565b61186f565b6001600160a01b03841660009081526007602052604090205460ff161580156117b257506001600160a01b03831660009081526007602052604090205460ff165b156117c25761176c848484611cb5565b6001600160a01b03841660009081526007602052604090205460ff1615801561180457506001600160a01b03831660009081526007602052604090205460ff16155b156118145761176c848484611d74565b6001600160a01b03841660009081526007602052604090205460ff16801561185457506001600160a01b03831660009081526007602052604090205460ff165b156118645761176c848484611dce565b61186f848484611d74565b8061152857611528601254601155601454601355601654601555565b600a546009546000918291825b600854811015611a15578260036000600884815481106118c857634e487b7160e01b600052603260045260246000fd5b60009182526020808320909101546001600160a01b031683528201929092526040019020541180611941575081600460006008848154811061191a57634e487b7160e01b600052603260045260246000fd5b60009182526020808320909101546001600160a01b03168352820192909252604001902054115b1561195757600a54600954945094505050509091565b6119ab600360006008848154811061197f57634e487b7160e01b600052603260045260246000fd5b60009182526020808320909101546001600160a01b03168352820192909252604001902054849061164d565b9250611a0160046000600884815481106119d557634e487b7160e01b600052603260045260246000fd5b60009182526020808320909101546001600160a01b03168352820192909252604001902054839061164d565b915080611a0d81612325565b915050611898565b50600954600a54611a2591611551565b821015611a3c57600a546009549350935050509091565b90939092509050565b60008183611a665760405162461bcd60e51b81526004016107ef91906121f4565b50600061130c8486612294565b6000806000806000611a8486611e57565b90506000611a9187611e73565b90506000611a9e88611e8f565b90506000611ab882611ab285818d8961164d565b9061164d565b9993985091965094509092505050565b6000808080611ad7898661168f565b90506000611ae5898761168f565b90506000611af3898861168f565b90506000611b01898961168f565b90506000611b1582611ab28581898961164d565b949d949c50929a509298505050505050505050565b601154158015611b3a5750601354155b8015611b465750601554155b15611b4d57565b6011805460125560138054601455601580546016556000928390559082905555565b6000806000806000806000611b83886115f2565b9650965096509650965096509650611bc988600460008d6001600160a01b03166001600160a01b031681526020019081526020016000205461164d90919063ffffffff16565b6001600160a01b038b16600090815260046020908152604080832093909355600390522054611bf8908861164d565b6001600160a01b03808c1660009081526003602052604080822093909355908b1681522054611c279087611593565b6001600160a01b038a16600090815260036020526040902055611c4982611eab565b611c5281611f34565b611c5c858461208e565b886001600160a01b03168a6001600160a01b03167fddf252ad1be2c89b69c2b068fc378daa952ba7f163c4a11628f55a4df523b3ef86604051611ca191815260200190565b60405180910390a350505050505050505050565b6000806000806000806000611cc9886115f2565b9650965096509650965096509650611d0f87600360008d6001600160a01b03166001600160a01b031681526020019081526020016000205461164d90919063ffffffff16565b6001600160a01b03808c16600090815260036020908152604080832094909455918c16815260049091522054611d459085611593565b6001600160a01b038a16600090815260046020908152604080832093909355600390522054611c279087611593565b6000806000806000806000611d88886115f2565b9650965096509650965096509650611bf887600360008d6001600160a01b03166001600160a01b031681526020019081526020016000205461164d90919063ffffffff16565b6000806000806000806000611de2886115f2565b9650965096509650965096509650611e2888600460008d6001600160a01b03166001600160a01b031681526020019081526020016000205461164d90919063ffffffff16565b6001600160a01b038b16600090815260046020908152604080832093909355600390522054611d0f908861164d565b600061071d60646110036011548561168f90919063ffffffff16565b600061071d60646110036013548561168f90919063ffffffff16565b600061071d60646110036015548561168f90919063ffffffff16565b6000611eb561152e565b90506000611ec3838361168f565b30600090815260036020526040902054909150611ee09082611593565b3060009081526003602090815260408083209390935560079052205460ff1615611f2f5730600090815260046020526040902054611f1e9084611593565b306000908152600460205260409020555b505050565b6000611f3e61152e565b90506000611f4c838361168f565b731021910af0f9e86277b12a8194eb0c9954380eb160005260036020527f8f9a5eea14a7d229cc45f47af5c596511c52b1d3a5604ea6697fff55c853cb3054909150611f989082611593565b731021910af0f9e86277b12a8194eb0c9954380eb16000527f8f9a5eea14a7d229cc45f47af5c596511c52b1d3a5604ea6697fff55c853cb305560076020527f26d87bb017756bb280039bfc200fe74b436b94a810f5985cfc837c57f26be14e5460ff1615611f2f57731021910af0f9e86277b12a8194eb0c9954380eb160005260046020527f3e9a0cc6a51512bed41988abdb2196cf40fe7255988660397c3c5dce67f92b7e5461204a9084611593565b731021910af0f9e86277b12a8194eb0c9954380eb160005260046020527f3e9a0cc6a51512bed41988abdb2196cf40fe7255988660397c3c5dce67f92b7e55505050565b600a5461209b908361164d565b600a55600b546120ab9082611593565b600b555050565b80356001600160a01b03811681146120c957600080fd5b919050565b6000602082840312156120df578081fd5b61080e826120b2565b600080604083850312156120fa578081fd5b612103836120b2565b9150612111602084016120b2565b90509250929050565b60008060006060848603121561212e578081fd5b612137846120b2565b9250612145602085016120b2565b9150604084013590509250925092565b60008060408385031215612167578182fd5b612170836120b2565b946020939093013593505050565b60006020828403121561218f578081fd5b5035919050565b600080604083850312156121a8578182fd5b82359150602083013580151581146121be578182fd5b809150509250929050565b6000806000606084860312156121dd578283fd5b505081359360208301359350604090920135919050565b6000602080835283518082850152825b8181101561222057858101830151858201604001528201612204565b818111156122315783604083870101525b50601f01601f1916929092016040019392505050565b6020808252818101527f4f776e61626c653a2063616c6c6572206973206e6f7420746865206f776e6572604082015260600190565b6000821982111561228f5761228f612340565b500190565b6000826122af57634e487b7160e01b81526012600452602481fd5b500490565b60008160001904831182151516156122ce576122ce612340565b500290565b6000828210156122e5576122e5612340565b500390565b600181811c908216806122fe57607f821691505b6020821081141561231f57634e487b7160e01b600052602260045260246000fd5b50919050565b600060001982141561233957612339612340565b5060010190565b634e487b7160e01b600052601160045260246000fdfe45524332303a207472616e7366657220616d6f756e74206578636565647320616c6c6f77616e63658be0079c531659141344cd1fd0a4f28419497f9722a3daafe3b4186f6b6457e045524332303a2064656372656173656420616c6c6f77616e63652062656c6f77207a65726fa26469706673582212200a1a6cee5362172987644eb8e54a1dcd38ff64d6080240fbec0709cb73b59c9564736f6c63430008040033",
  "immutableReferences": {},
  "source": "\r\npragma solidity ^0.8.4;\r\n// SPDX-License-Identifier: Unlicensed\r\n\r\ninterface IERC20 {\r\n\r\n    function totalSupply() external view returns (uint256);\r\n    function balanceOf(address account) external view returns (uint256);\r\n    function transfer(address recipient, uint256 amount) external returns (bool);\r\n    function allowance(address owner, address spender) external view returns (uint256);\r\n    function approve(address spender, uint256 amount) external returns (bool);\r\n    function transferFrom(address sender, address recipient, uint256 amount) external returns (bool);\r\n    event Transfer(address indexed from, address indexed to, uint256 value);\r\n    event Approval(address indexed owner, address indexed spender, uint256 value);\r\n}\r\n\r\nlibrary SafeMath {\r\n\r\n    function add(uint256 a, uint256 b) internal pure returns (uint256) {\r\n        uint256 c = a + b;\r\n        require(c >= a, \"SafeMath: addition overflow\");\r\n        return c;\r\n    }\r\n\r\n    function sub(uint256 a, uint256 b) internal pure returns (uint256) {\r\n        return sub(a, b, \"SafeMath: subtraction overflow\");\r\n    }\r\n\r\n    function sub(uint256 a, uint256 b, string memory errorMessage) internal pure returns (uint256) {\r\n        require(b <= a, errorMessage);\r\n        uint256 c = a - b;\r\n        return c;\r\n    }\r\n\r\n    function mul(uint256 a, uint256 b) internal pure returns (uint256) {\r\n        if (a == 0) {\r\n            return 0;\r\n        }\r\n        uint256 c = a * b;\r\n        require(c / a == b, \"SafeMath: multiplication overflow\");\r\n        return c;\r\n    }\r\n\r\n    function div(uint256 a, uint256 b) internal pure returns (uint256) {\r\n        return div(a, b, \"SafeMath: division by zero\");\r\n    }\r\n\r\n    function div(uint256 a, uint256 b, string memory errorMessage) internal pure returns (uint256) {\r\n        require(b > 0, errorMessage);\r\n        uint256 c = a / b;\r\n        return c;\r\n    }\r\n\r\n    function mod(uint256 a, uint256 b) internal pure returns (uint256) {\r\n        return mod(a, b, \"SafeMath: modulo by zero\");\r\n    }\r\n\r\n    function mod(uint256 a, uint256 b, string memory errorMessage) internal pure returns (uint256) {\r\n        require(b != 0, errorMessage);\r\n        return a % b;\r\n    }\r\n}\r\n\r\nabstract contract Context {\r\n    function _msgSender() internal view virtual returns (address payable) {\r\n        return payable(msg.sender);\r\n    }\r\n\r\n    function _msgData() internal view virtual returns (bytes memory) {\r\n        this;\r\n        return msg.data;\r\n    }\r\n}\r\n\r\nlibrary Address {\r\n\r\n    function isContract(address account) internal view returns (bool) {\r\n        // According to EIP-1052, 0x0 is the value returned for not-yet created accounts\r\n        // and 0xc5d2460186f7233c927e7db2dcc703c0e500b653ca82273b7bfad8045d85a470 is returned\r\n        // for accounts without code, i.e. `keccak256('')`\r\n        // The account hash of 0xc5d2460186f7233c927e7db2dcc703c0e500b653ca82273b7bfad8045d85a470 is returned for non-contract addresses,\r\n        // so-called Externally Owned Account (EOA)\r\n        bytes32 codehash;\r\n        bytes32 accountHash = 0xc5d2460186f7233c927e7db2dcc703c0e500b653ca82273b7bfad8045d85a470;\r\n        assembly { codehash := extcodehash(account) }\r\n        return (codehash != accountHash && codehash != 0x0);\r\n    }\r\n\r\n    function sendValue(address payable recipient, uint256 amount) internal {\r\n        require(address(this).balance >= amount, \"Address: insufficient balance\");\r\n        (bool success, ) = recipient.call{ value: amount }(\"\");\r\n        require(success, \"Address: unable to send value, recipient may have reverted\");\r\n    }\r\n\r\n    function functionCall(address target, bytes memory data) internal returns (bytes memory) {\r\n        return functionCall(target, data, \"Address: low-level call failed\");\r\n    }\r\n\r\n    function functionCall(address target, bytes memory data, string memory errorMessage) internal returns (bytes memory) {\r\n        return _functionCallWithValue(target, data, 0, errorMessage);\r\n    }\r\n\r\n    function functionCallWithValue(address target, bytes memory data, uint256 value) internal returns (bytes memory) {\r\n        return functionCallWithValue(target, data, value, \"Address: low-level call with value failed\");\r\n    }\r\n\r\n    function functionCallWithValue(address target, bytes memory data, uint256 value, string memory errorMessage) internal returns (bytes memory) {\r\n        require(address(this).balance >= value, \"Address: insufficient balance for call\");\r\n        return _functionCallWithValue(target, data, value, errorMessage);\r\n    }\r\n\r\n    function _functionCallWithValue(address target, bytes memory data, uint256 weiValue, string memory errorMessage) private returns (bytes memory) {\r\n        require(isContract(target), \"Address: call to non-contract\");\r\n        (bool success, bytes memory returndata) = target.call{ value: weiValue }(data);\r\n        if (success) {\r\n            return returndata;\r\n        } else {\r\n            if (returndata.length > 0) {\r\n                assembly {\r\n                    let returndata_size := mload(returndata)\r\n                    revert(add(32, returndata), returndata_size)\r\n                }\r\n            } else {\r\n                revert(errorMessage);\r\n            }\r\n        }\r\n    }\r\n}\r\n\r\ncontract Ownable is Context {\r\n    address private _owner;\r\n    address private _previousOwner;\r\n    uint256 private _lockTime;\r\n\r\n    event OwnershipTransferred(address indexed previousOwner, address indexed newOwner);\r\n\r\n    constructor () {\r\n        address msgSender = _msgSender();\r\n        _owner = msgSender;\r\n        emit OwnershipTransferred(address(0), msgSender);\r\n    }\r\n\r\n    function owner() public view returns (address) {\r\n        return _owner;\r\n    }\r\n\r\n    modifier onlyOwner() {\r\n        require(_owner == _msgSender(), \"Ownable: caller is not the owner\");\r\n        _;\r\n    }\r\n\r\n    function renounceOwnership() public virtual onlyOwner {\r\n        emit OwnershipTransferred(_owner, address(0));\r\n        _owner = address(0);\r\n    }\r\n\r\n    function transferOwnership(address newOwner) public virtual onlyOwner {\r\n        require(newOwner != address(0), \"Ownable: new owner is the zero address\");\r\n        emit OwnershipTransferred(_owner, newOwner);\r\n        _owner = newOwner;\r\n    }\r\n\r\n    function geUnlockTime() public view returns (uint256) {\r\n        return _lockTime;\r\n    }\r\n\r\n    function lock(uint256 time) public virtual onlyOwner {\r\n        _previousOwner = _owner;\r\n        _owner = address(0);\r\n        _lockTime = block.timestamp + time;\r\n        emit OwnershipTransferred(_owner, address(0));\r\n    }\r\n\r\n    function unlock() public virtual {\r\n        require(_previousOwner == msg.sender, \"You dont have permission to unlock\");\r\n        require(block.timestamp > _lockTime , \"Contract is locked for more time\");\r\n        emit OwnershipTransferred(_owner, _previousOwner);\r\n        _owner = _previousOwner;\r\n    }\r\n}\r\n\r\ncontract SuperHToken is Context, IERC20, Ownable {\r\n    using SafeMath for uint256;\r\n    using Address for address;\r\n\r\n    mapping (address => uint256) private _rOwned;\r\n    mapping (address => uint256) private _tOwned;\r\n    mapping (address => mapping (address => uint256)) private _allowances;\r\n\r\n    mapping (address => bool) private _isExcludedFromFee;\r\n\r\n    mapping (address => bool) private _isExcluded;\r\n    address[] private _excluded;\r\n\r\n    uint256 private constant MAX = ~uint256(0);\r\n    uint256 private _tTotal = 100000000 * 10**6 * 10**9; // TOTAL AMOUNT : 100.000.000.000.000 tokens\r\n    uint256 private _rTotal = (MAX - (MAX % _tTotal));\r\n    uint256 private _tFeeTotal;\r\n\r\n    uint256 private constant MONTH = 2628000; // 31536000/12 ;\r\n    uint256 private constant DAYS = 86400; // 31536000/365 ;\r\n    uint256 private _startTimestamp;\r\n    uint256 private _LockingPeriodDays = 30; // Locking time for locking liquidity in days\r\n\r\n    string private _name = \"SuperH\";\r\n    string private _symbol = \"SUPH\";\r\n    uint8 private _decimals = 9;\r\n\r\n    uint256 public _taxFee = 3; // 3% redistribuition to SuperH holders\r\n    uint256 private _previousTaxFee = _taxFee;\r\n\r\n    uint256 public _liquidityFee = 3; // 3% fee auto add to the liquidity pool to locked forever when selling\r\n    uint256 private _previousLiquidityFee = _liquidityFee;\r\n\r\n    uint256 public _charityFee = 3; // 3% fee auto add to charity wallet\r\n    uint256 private _previousCharityFee = _charityFee;\r\n\r\n    uint256 public _maxTxAmount = 500000 * 10**6 * 10**9; // Max transferrable in one transaction (1% of _tTotal after initial burning of 50% of total tokens)\r\n\r\n    address public constant CHARITY_ADDRESS = 0x1021910Af0F9e86277b12a8194Eb0c9954380eB1;\r\n\r\n    constructor ()  {\r\n        _rOwned[_msgSender()] = _rTotal;\r\n        //exclude owner and this contract from fee\r\n        _isExcludedFromFee[owner()] = true;\r\n        _isExcludedFromFee[address(this)] = true;\r\n\r\n        emit Transfer(address(0), _msgSender(), _tTotal);\r\n    }\r\n\r\n    function name() public view returns (string memory) {\r\n        return _name;\r\n    }\r\n\r\n    function symbol() public view returns (string memory) {\r\n        return _symbol;\r\n    }\r\n\r\n    function decimals() public view returns (uint8) {\r\n        return _decimals;\r\n    }\r\n\r\n    function totalSupply() public view override returns (uint256) {\r\n        return _tTotal;\r\n    }\r\n\r\n    function balanceOf(address account) public view override returns (uint256) {\r\n        if (_isExcluded[account]) return _tOwned[account];\r\n        return tokenFromReflection(_rOwned[account]);\r\n    }\r\n\r\n    function transfer(address recipient, uint256 amount) public override returns (bool) {\r\n        _transfer(_msgSender(), recipient, amount);\r\n        return true;\r\n    }\r\n\r\n    function allowance(address owner, address spender) public view override returns (uint256) {\r\n        return _allowances[owner][spender];\r\n    }\r\n\r\n    function approve(address spender, uint256 amount) public override returns (bool) {\r\n        _approve(_msgSender(), spender, amount);\r\n        return true;\r\n    }\r\n\r\n    function transferFrom(address sender, address recipient, uint256 amount) public override returns (bool) {\r\n        _approve(sender, _msgSender(), _allowances[sender][_msgSender()].sub(amount, \"ERC20: transfer amount exceeds allowance\"));\r\n        _transfer(sender, recipient, amount);\r\n        return true;\r\n    }\r\n\r\n    function increaseAllowance(address spender, uint256 addedValue) public virtual returns (bool) {\r\n        _approve(_msgSender(), spender, _allowances[_msgSender()][spender].add(addedValue));\r\n        return true;\r\n    }\r\n\r\n    function decreaseAllowance(address spender, uint256 subtractedValue) public virtual returns (bool) {\r\n        _approve(_msgSender(), spender, _allowances[_msgSender()][spender].sub(subtractedValue, \"ERC20: decreased allowance below zero\"));\r\n        return true;\r\n    }\r\n\r\n    function isExcludedFromReward(address account) public view returns (bool) {\r\n        return _isExcluded[account];\r\n    }\r\n\r\n    function totalFees() public view returns (uint256) {\r\n        return _tFeeTotal;\r\n    }\r\n\r\n    function deliver(uint256 tAmount) public {\r\n        address sender = _msgSender();\r\n        require(!_isExcluded[sender], \"Excluded addresses cannot call this function\");\r\n        (uint256 rAmount,,,,,,) = _getValues(tAmount);\r\n        _rOwned[sender] = _rOwned[sender].sub(rAmount);\r\n        _rTotal = _rTotal.sub(rAmount);\r\n        _tFeeTotal = _tFeeTotal.add(tAmount);\r\n    }\r\n\r\n    function reflectionFromToken(uint256 tAmount, bool deductTransferFee) public view returns(uint256) {\r\n        require(tAmount <= _tTotal, \"Amount must be less than supply\");\r\n        if (!deductTransferFee) {\r\n            (uint256 rAmount,,,,,,) = _getValues(tAmount);\r\n            return rAmount;\r\n        } else {\r\n            (,uint256 rTransferAmount,,,,,) = _getValues(tAmount);\r\n            return rTransferAmount;\r\n        }\r\n    }\r\n\r\n    function tokenFromReflection(uint256 rAmount) public view returns(uint256) {\r\n        require(rAmount <= _rTotal, \"Amount must be less than total reflections\");\r\n        uint256 currentRate =  _getRate();\r\n        return rAmount.div(currentRate);\r\n    }\r\n\r\n    function excludeFromReward(address account) public onlyOwner() {\r\n        // require(account != 0x7a250d5630B4cF539739dF2C5dAcb4c659F2488D, 'We can not exclude Uniswap router.');\r\n        require(!_isExcluded[account], \"Account is already excluded\");\r\n        if(_rOwned[account] > 0) {\r\n            _tOwned[account] = tokenFromReflection(_rOwned[account]);\r\n        }\r\n        _isExcluded[account] = true;\r\n        _excluded.push(account);\r\n    }\r\n\r\n    function includeInReward(address account) external onlyOwner() {\r\n        require(_isExcluded[account], \"Account is already excluded\");\r\n        for (uint256 i = 0; i < _excluded.length; i++) {\r\n            if (_excluded[i] == account) {\r\n                _excluded[i] = _excluded[_excluded.length - 1];\r\n                _tOwned[account] = 0;\r\n                _isExcluded[account] = false;\r\n                _excluded.pop();\r\n                break;\r\n            }\r\n        }\r\n    }\r\n    function _transferBothExcluded(address sender, address recipient, uint256 tAmount) private {\r\n        (uint256 rAmount, uint256 rTransferAmount, uint256 rFee, uint256 tTransferAmount, uint256 tFee, uint256 tLiquidity, uint256 tCharity) = _getValues(tAmount);\r\n        _tOwned[sender] = _tOwned[sender].sub(tAmount);\r\n        _rOwned[sender] = _rOwned[sender].sub(rAmount);\r\n        _tOwned[recipient] = _tOwned[recipient].add(tTransferAmount);\r\n        _rOwned[recipient] = _rOwned[recipient].add(rTransferAmount);\r\n        _takeLiquidity(tLiquidity);\r\n        _takeCharity(tCharity);\r\n        _reflectFee(rFee, tFee);\r\n        emit Transfer(sender, recipient, tTransferAmount);\r\n    }\r\n\r\n    function excludeFromFee(address account) public onlyOwner {\r\n        _isExcludedFromFee[account] = true;\r\n    }\r\n\r\n    function includeInFee(address account) public onlyOwner {\r\n        _isExcludedFromFee[account] = false;\r\n    }\r\n\r\n    function setFeePercent(uint256 taxFee, uint256 liquidityFee, uint256 charityFee) external onlyOwner() {\r\n        _taxFee = taxFee;\r\n        _liquidityFee = liquidityFee;\r\n        _charityFee = charityFee;\r\n    }\r\n\r\n    function setMaxTxPercent(uint256 maxTxPercent) external onlyOwner() {\r\n        _maxTxAmount = _tTotal.mul(maxTxPercent).div(\r\n            10**2\r\n        );\r\n    }\r\n\r\n    receive() external payable {}\r\n\r\n    function _reflectFee(uint256 rFee, uint256 tFee) private {\r\n        _rTotal = _rTotal.sub(rFee);\r\n        _tFeeTotal = _tFeeTotal.add(tFee);\r\n    }\r\n\r\n    function _getValues(uint256 tAmount) private view returns (uint256, uint256, uint256, uint256, uint256, uint256, uint256) {\r\n        (uint256 tTransferAmount, uint256 tFee, uint256 tLiquidity, uint256 tCharity) = _getTValues(tAmount);\r\n        (uint256 rAmount, uint256 rTransferAmount, uint256 rFee) = _getRValues(tAmount, tFee, tLiquidity, tCharity, _getRate());\r\n        return (rAmount, rTransferAmount, rFee, tTransferAmount, tFee, tLiquidity, tCharity);\r\n    }\r\n\r\n    function _getTValues(uint256 tAmount) private view returns (uint256, uint256, uint256, uint256) {\r\n        uint256 tFee = calculateTaxFee(tAmount);\r\n        uint256 tLiquidity = calculateLiquidityFee(tAmount);\r\n        uint256 tCharity = calculateCharityFee(tAmount);\r\n        uint256 tTransferAmount = tAmount.sub(tFee).sub(tLiquidity).sub(tCharity);\r\n        return (tTransferAmount, tFee, tLiquidity, tCharity);\r\n    }\r\n\r\n    function _getRValues(uint256 tAmount, uint256 tFee, uint256 tLiquidity, uint256 tCharity, uint256 currentRate) private pure returns (uint256, uint256, uint256) {\r\n        uint256 rAmount = tAmount.mul(currentRate);\r\n        uint256 rFee = tFee.mul(currentRate);\r\n        uint256 rLiquidity = tLiquidity.mul(currentRate);\r\n        uint256 rCharity = tCharity.mul(currentRate);\r\n        uint256 rTransferAmount = rAmount.sub(rFee).sub(rLiquidity).sub(rCharity);\r\n        return (rAmount, rTransferAmount, rFee);\r\n    }\r\n\r\n    function _getRate() private view returns(uint256) {\r\n        (uint256 rSupply, uint256 tSupply) = _getCurrentSupply();\r\n        return rSupply.div(tSupply);\r\n    }\r\n\r\n    function _getCurrentSupply() private view returns(uint256, uint256) {\r\n        uint256 rSupply = _rTotal;\r\n        uint256 tSupply = _tTotal;\r\n        for (uint256 i = 0; i < _excluded.length; i++) {\r\n            if (_rOwned[_excluded[i]] > rSupply || _tOwned[_excluded[i]] > tSupply) return (_rTotal, _tTotal);\r\n            rSupply = rSupply.sub(_rOwned[_excluded[i]]);\r\n            tSupply = tSupply.sub(_tOwned[_excluded[i]]);\r\n        }\r\n        if (rSupply < _rTotal.div(_tTotal)) return (_rTotal, _tTotal);\r\n        return (rSupply, tSupply);\r\n    }\r\n\r\n    function _takeLiquidity(uint256 tLiquidity) private {\r\n        uint256 currentRate =  _getRate();\r\n        uint256 rLiquidity = tLiquidity.mul(currentRate);\r\n        _rOwned[address(this)] = _rOwned[address(this)].add(rLiquidity);\r\n        if(_isExcluded[address(this)])\r\n            _tOwned[address(this)] = _tOwned[address(this)].add(tLiquidity);\r\n    }\r\n\r\n    function _takeCharity(uint256 tCharity) private {\r\n        uint256 currentRate =  _getRate();\r\n        uint256 rCharity = tCharity.mul(currentRate);\r\n        _rOwned[CHARITY_ADDRESS] = _rOwned[CHARITY_ADDRESS].add(rCharity);\r\n        if(_isExcluded[CHARITY_ADDRESS])\r\n            _tOwned[CHARITY_ADDRESS] = _tOwned[CHARITY_ADDRESS].add(tCharity);\r\n    }\r\n\r\n    function calculateTaxFee(uint256 _amount) private view returns (uint256) {\r\n        return _amount.mul(_taxFee).div(10**2);\r\n    }\r\n\r\n    function calculateLiquidityFee(uint256 _amount) private view returns (uint256) {\r\n        return _amount.mul(_liquidityFee).div(10**2);\r\n    }\r\n\r\n    function calculateCharityFee(uint256 _amount) private view returns (uint256) {\r\n        return _amount.mul(_charityFee).div(10**2);\r\n    }\r\n\r\n    function removeAllFee() private {\r\n        if(_taxFee == 0 && _liquidityFee == 0 && _charityFee == 0) return;\r\n\r\n        _previousTaxFee = _taxFee;\r\n        _previousLiquidityFee = _liquidityFee;\r\n        _previousCharityFee = _charityFee;\r\n\r\n        _taxFee = 0;\r\n        _liquidityFee = 0;\r\n        _charityFee = 0;\r\n    }\r\n\r\n    function restoreAllFee() private {\r\n        _taxFee = _previousTaxFee;\r\n        _liquidityFee = _previousLiquidityFee;\r\n        _charityFee = _previousCharityFee;\r\n    }\r\n\r\n    function isExcludedFromFee(address account) public view returns(bool) {\r\n        return _isExcludedFromFee[account];\r\n    }\r\n\r\n    function _approve(address owner, address spender, uint256 amount) private {\r\n        require(owner != address(0), \"ERC20: approve from the zero address\");\r\n        require(spender != address(0), \"ERC20: approve to the zero address\");\r\n\r\n        _allowances[owner][spender] = amount;\r\n        emit Approval(owner, spender, amount);\r\n    }\r\n\r\n    function _transfer(\r\n        address from,\r\n        address to,\r\n        uint256 amount\r\n    ) private {\r\n        require(from != address(0), \"ERC20: transfer from the zero address\");\r\n        require(to != address(0), \"ERC20: transfer to the zero address\");\r\n        require(amount > 0, \"Transfer amount must be greater than zero\");\r\n        if(from != owner() && to != owner())\r\n            require(amount <= _maxTxAmount, \"Transfer amount exceeds the maxTxAmount.\");\r\n\r\n        //indicates if fee should be deducted from transfer\r\n        bool takeFee = true;\r\n\r\n        if(_isExcludedFromFee[from] || _isExcludedFromFee[to]){\r\n            takeFee = false;\r\n        }\r\n        //transfer amount, it will take redistribuition fee, charity fee, liquidity fee\r\n        _tokenTransfer(from,to,amount,takeFee);\r\n    }\r\n\r\n    //this method is responsible for taking all fee, if takeFee is true\r\n    function _tokenTransfer(address sender, address recipient, uint256 amount, bool takeFee) private {\r\n        if(!takeFee)\r\n            removeAllFee();\r\n\r\n        if (_isExcluded[sender] && !_isExcluded[recipient]) {\r\n            _transferFromExcluded(sender, recipient, amount);\r\n        } else if (!_isExcluded[sender] && _isExcluded[recipient]) {\r\n            _transferToExcluded(sender, recipient, amount);\r\n        } else if (!_isExcluded[sender] && !_isExcluded[recipient]) {\r\n            _transferStandard(sender, recipient, amount);\r\n        } else if (_isExcluded[sender] && _isExcluded[recipient]) {\r\n            _transferBothExcluded(sender, recipient, amount);\r\n        } else {\r\n            _transferStandard(sender, recipient, amount);\r\n        }\r\n\r\n        if(!takeFee)\r\n            restoreAllFee();\r\n    }\r\n\r\n    function _transferStandard(address sender, address recipient, uint256 tAmount) private {\r\n        (uint256 rAmount, uint256 rTransferAmount, uint256 rFee, uint256 tTransferAmount, uint256 tFee, uint256 tLiquidity, uint256 tCharity) = _getValues(tAmount);\r\n        _rOwned[sender] = _rOwned[sender].sub(rAmount);\r\n        _rOwned[recipient] = _rOwned[recipient].add(rTransferAmount);\r\n        _takeLiquidity(tLiquidity);\r\n        _takeCharity(tCharity);\r\n        _reflectFee(rFee, tFee);\r\n        emit Transfer(sender, recipient, tTransferAmount);\r\n    }\r\n\r\n    function _transferToExcluded(address sender, address recipient, uint256 tAmount) private {\r\n        (uint256 rAmount, uint256 rTransferAmount, uint256 rFee, uint256 tTransferAmount, uint256 tFee, uint256 tLiquidity, uint256 tCharity) = _getValues(tAmount);\r\n        _rOwned[sender] = _rOwned[sender].sub(rAmount);\r\n        _tOwned[recipient] = _tOwned[recipient].add(tTransferAmount);\r\n        _rOwned[recipient] = _rOwned[recipient].add(rTransferAmount);\r\n        _takeLiquidity(tLiquidity);\r\n        _takeCharity(tCharity);\r\n        _reflectFee(rFee, tFee);\r\n        emit Transfer(sender, recipient, tTransferAmount);\r\n    }\r\n\r\n    function _transferFromExcluded(address sender, address recipient, uint256 tAmount) private {\r\n        (uint256 rAmount, uint256 rTransferAmount, uint256 rFee, uint256 tTransferAmount, uint256 tFee, uint256 tLiquidity, uint256 tCharity) = _getValues(tAmount);\r\n        _tOwned[sender] = _tOwned[sender].sub(tAmount);\r\n        _rOwned[sender] = _rOwned[sender].sub(rAmount);\r\n        _rOwned[recipient] = _rOwned[recipient].add(rTransferAmount);\r\n        _takeLiquidity(tLiquidity);\r\n        _takeCharity(tCharity);\r\n        _reflectFee(rFee, tFee);\r\n        emit Transfer(sender, recipient, tTransferAmount);\r\n    }\r\n}\r\n",
  "sourcePath": "C:/Dati/Progetti/BlockChain/Projects/SuperHolder/contracts/SuperH.sol",
  "compiler": {
    "name": "solc",
    "version": "0.8.4+commit.c7e474f2.Emscripten.clang"
  },
  "schemaVersion": "3.3.4",
  "updatedAt": "2021-06-07T10:47:30.308Z",
  "networkType": "ethereum",
  "devdoc": {
    "kind": "dev",
    "methods": {},
    "version": 1
  },
  "userdoc": {
    "kind": "user",
    "methods": {},
    "version": 1
  }
}