{
  "contractName": "SuperHToken",
  "abi": [
    {
      "inputs": [],
      "stateMutability": "nonpayable",
      "type": "constructor"
    },
    {
      "anonymous": false,
      "inputs": [
        {
          "indexed": true,
          "internalType": "address",
          "name": "owner",
          "type": "address"
        },
        {
          "indexed": true,
          "internalType": "address",
          "name": "spender",
          "type": "address"
        },
        {
          "indexed": false,
          "internalType": "uint256",
          "name": "value",
          "type": "uint256"
        }
      ],
      "name": "Approval",
      "type": "event"
    },
    {
      "anonymous": false,
      "inputs": [
        {
          "indexed": true,
          "internalType": "address",
          "name": "previousOwner",
          "type": "address"
        },
        {
          "indexed": true,
          "internalType": "address",
          "name": "newOwner",
          "type": "address"
        }
      ],
      "name": "OwnershipTransferred",
      "type": "event"
    },
    {
      "anonymous": false,
      "inputs": [
        {
          "indexed": true,
          "internalType": "address",
          "name": "from",
          "type": "address"
        },
        {
          "indexed": true,
          "internalType": "address",
          "name": "to",
          "type": "address"
        },
        {
          "indexed": false,
          "internalType": "uint256",
          "name": "value",
          "type": "uint256"
        }
      ],
      "name": "Transfer",
      "type": "event"
    },
    {
      "inputs": [],
      "name": "CHARITY_ADDRESS",
      "outputs": [
        {
          "internalType": "address",
          "name": "",
          "type": "address"
        }
      ],
      "stateMutability": "view",
      "type": "function",
      "constant": true
    },
    {
      "inputs": [],
      "name": "_charityFee",
      "outputs": [
        {
          "internalType": "uint256",
          "name": "",
          "type": "uint256"
        }
      ],
      "stateMutability": "view",
      "type": "function",
      "constant": true
    },
    {
      "inputs": [],
      "name": "_liquidityFee",
      "outputs": [
        {
          "internalType": "uint256",
          "name": "",
          "type": "uint256"
        }
      ],
      "stateMutability": "view",
      "type": "function",
      "constant": true
    },
    {
      "inputs": [],
      "name": "_maxTxAmount",
      "outputs": [
        {
          "internalType": "uint256",
          "name": "",
          "type": "uint256"
        }
      ],
      "stateMutability": "view",
      "type": "function",
      "constant": true
    },
    {
      "inputs": [],
      "name": "_taxFee",
      "outputs": [
        {
          "internalType": "uint256",
          "name": "",
          "type": "uint256"
        }
      ],
      "stateMutability": "view",
      "type": "function",
      "constant": true
    },
    {
      "inputs": [],
      "name": "geUnlockTime",
      "outputs": [
        {
          "internalType": "uint256",
          "name": "",
          "type": "uint256"
        }
      ],
      "stateMutability": "view",
      "type": "function",
      "constant": true
    },
    {
      "inputs": [
        {
          "internalType": "uint256",
          "name": "time",
          "type": "uint256"
        }
      ],
      "name": "lock",
      "outputs": [],
      "stateMutability": "nonpayable",
      "type": "function"
    },
    {
      "inputs": [],
      "name": "owner",
      "outputs": [
        {
          "internalType": "address",
          "name": "",
          "type": "address"
        }
      ],
      "stateMutability": "view",
      "type": "function",
      "constant": true
    },
    {
      "inputs": [],
      "name": "renounceOwnership",
      "outputs": [],
      "stateMutability": "nonpayable",
      "type": "function"
    },
    {
      "inputs": [
        {
          "internalType": "address",
          "name": "newOwner",
          "type": "address"
        }
      ],
      "name": "transferOwnership",
      "outputs": [],
      "stateMutability": "nonpayable",
      "type": "function"
    },
    {
      "inputs": [],
      "name": "unlock",
      "outputs": [],
      "stateMutability": "nonpayable",
      "type": "function"
    },
    {
      "stateMutability": "payable",
      "type": "receive",
      "payable": true
    },
    {
      "inputs": [],
      "name": "name",
      "outputs": [
        {
          "internalType": "string",
          "name": "",
          "type": "string"
        }
      ],
      "stateMutability": "view",
      "type": "function",
      "constant": true
    },
    {
      "inputs": [],
      "name": "symbol",
      "outputs": [
        {
          "internalType": "string",
          "name": "",
          "type": "string"
        }
      ],
      "stateMutability": "view",
      "type": "function",
      "constant": true
    },
    {
      "inputs": [],
      "name": "decimals",
      "outputs": [
        {
          "internalType": "uint8",
          "name": "",
          "type": "uint8"
        }
      ],
      "stateMutability": "view",
      "type": "function",
      "constant": true
    },
    {
      "inputs": [],
      "name": "totalSupply",
      "outputs": [
        {
          "internalType": "uint256",
          "name": "",
          "type": "uint256"
        }
      ],
      "stateMutability": "view",
      "type": "function",
      "constant": true
    },
    {
      "inputs": [
        {
          "internalType": "address",
          "name": "account",
          "type": "address"
        }
      ],
      "name": "balanceOf",
      "outputs": [
        {
          "internalType": "uint256",
          "name": "",
          "type": "uint256"
        }
      ],
      "stateMutability": "view",
      "type": "function",
      "constant": true
    },
    {
      "inputs": [
        {
          "internalType": "address",
          "name": "recipient",
          "type": "address"
        },
        {
          "internalType": "uint256",
          "name": "amount",
          "type": "uint256"
        }
      ],
      "name": "transfer",
      "outputs": [
        {
          "internalType": "bool",
          "name": "",
          "type": "bool"
        }
      ],
      "stateMutability": "nonpayable",
      "type": "function"
    },
    {
      "inputs": [
        {
          "internalType": "address",
          "name": "owner",
          "type": "address"
        },
        {
          "internalType": "address",
          "name": "spender",
          "type": "address"
        }
      ],
      "name": "allowance",
      "outputs": [
        {
          "internalType": "uint256",
          "name": "",
          "type": "uint256"
        }
      ],
      "stateMutability": "view",
      "type": "function",
      "constant": true
    },
    {
      "inputs": [
        {
          "internalType": "address",
          "name": "spender",
          "type": "address"
        },
        {
          "internalType": "uint256",
          "name": "amount",
          "type": "uint256"
        }
      ],
      "name": "approve",
      "outputs": [
        {
          "internalType": "bool",
          "name": "",
          "type": "bool"
        }
      ],
      "stateMutability": "nonpayable",
      "type": "function"
    },
    {
      "inputs": [
        {
          "internalType": "address",
          "name": "sender",
          "type": "address"
        },
        {
          "internalType": "address",
          "name": "recipient",
          "type": "address"
        },
        {
          "internalType": "uint256",
          "name": "amount",
          "type": "uint256"
        }
      ],
      "name": "transferFrom",
      "outputs": [
        {
          "internalType": "bool",
          "name": "",
          "type": "bool"
        }
      ],
      "stateMutability": "nonpayable",
      "type": "function"
    },
    {
      "inputs": [
        {
          "internalType": "address",
          "name": "spender",
          "type": "address"
        },
        {
          "internalType": "uint256",
          "name": "addedValue",
          "type": "uint256"
        }
      ],
      "name": "increaseAllowance",
      "outputs": [
        {
          "internalType": "bool",
          "name": "",
          "type": "bool"
        }
      ],
      "stateMutability": "nonpayable",
      "type": "function"
    },
    {
      "inputs": [
        {
          "internalType": "address",
          "name": "spender",
          "type": "address"
        },
        {
          "internalType": "uint256",
          "name": "subtractedValue",
          "type": "uint256"
        }
      ],
      "name": "decreaseAllowance",
      "outputs": [
        {
          "internalType": "bool",
          "name": "",
          "type": "bool"
        }
      ],
      "stateMutability": "nonpayable",
      "type": "function"
    },
    {
      "inputs": [
        {
          "internalType": "address",
          "name": "account",
          "type": "address"
        }
      ],
      "name": "isExcludedFromReward",
      "outputs": [
        {
          "internalType": "bool",
          "name": "",
          "type": "bool"
        }
      ],
      "stateMutability": "view",
      "type": "function",
      "constant": true
    },
    {
      "inputs": [],
      "name": "totalFees",
      "outputs": [
        {
          "internalType": "uint256",
          "name": "",
          "type": "uint256"
        }
      ],
      "stateMutability": "view",
      "type": "function",
      "constant": true
    },
    {
      "inputs": [
        {
          "internalType": "uint256",
          "name": "tAmount",
          "type": "uint256"
        }
      ],
      "name": "deliver",
      "outputs": [],
      "stateMutability": "nonpayable",
      "type": "function"
    },
    {
      "inputs": [
        {
          "internalType": "uint256",
          "name": "tAmount",
          "type": "uint256"
        },
        {
          "internalType": "bool",
          "name": "deductTransferFee",
          "type": "bool"
        }
      ],
      "name": "reflectionFromToken",
      "outputs": [
        {
          "internalType": "uint256",
          "name": "",
          "type": "uint256"
        }
      ],
      "stateMutability": "view",
      "type": "function",
      "constant": true
    },
    {
      "inputs": [
        {
          "internalType": "uint256",
          "name": "rAmount",
          "type": "uint256"
        }
      ],
      "name": "tokenFromReflection",
      "outputs": [
        {
          "internalType": "uint256",
          "name": "",
          "type": "uint256"
        }
      ],
      "stateMutability": "view",
      "type": "function",
      "constant": true
    },
    {
      "inputs": [
        {
          "internalType": "address",
          "name": "account",
          "type": "address"
        }
      ],
      "name": "excludeFromReward",
      "outputs": [],
      "stateMutability": "nonpayable",
      "type": "function"
    },
    {
      "inputs": [
        {
          "internalType": "address",
          "name": "account",
          "type": "address"
        }
      ],
      "name": "includeInReward",
      "outputs": [],
      "stateMutability": "nonpayable",
      "type": "function"
    },
    {
      "inputs": [
        {
          "internalType": "address",
          "name": "account",
          "type": "address"
        }
      ],
      "name": "excludeFromFee",
      "outputs": [],
      "stateMutability": "nonpayable",
      "type": "function"
    },
    {
      "inputs": [
        {
          "internalType": "address",
          "name": "account",
          "type": "address"
        }
      ],
      "name": "includeInFee",
      "outputs": [],
      "stateMutability": "nonpayable",
      "type": "function"
    },
    {
      "inputs": [
        {
          "internalType": "uint256",
          "name": "taxFee",
          "type": "uint256"
        },
        {
          "internalType": "uint256",
          "name": "liquidityFee",
          "type": "uint256"
        },
        {
          "internalType": "uint256",
          "name": "charityFee",
          "type": "uint256"
        }
      ],
      "name": "setFeePercent",
      "outputs": [],
      "stateMutability": "nonpayable",
      "type": "function"
    },
    {
      "inputs": [
        {
          "internalType": "uint256",
          "name": "maxTxPercent",
          "type": "uint256"
        }
      ],
      "name": "setMaxTxPercent",
      "outputs": [],
      "stateMutability": "nonpayable",
      "type": "function"
    },
    {
      "inputs": [
        {
          "internalType": "address",
          "name": "account",
          "type": "address"
        }
      ],
      "name": "isExcludedFromFee",
      "outputs": [
        {
          "internalType": "bool",
          "name": "",
          "type": "bool"
        }
      ],
      "stateMutability": "view",
      "type": "function",
      "constant": true
    },
    {
      "inputs": [
        {
          "internalType": "address payable",
          "name": "_to",
          "type": "address"
        }
      ],
      "name": "destroySmartContract",
      "outputs": [],
      "stateMutability": "nonpayable",
      "type": "function"
    }
  ],
  "bytecode": "0x608060405269152d02c7e14af680000060098190556200002290600019620002b1565b620000309060001962000250565b600a55601e600d5560408051808201909152600b8082526a0a8cae6e840a6eae0cae4960ab1b60209092019182526200006c91600e91620001aa565b50604080518082019091526003808252620a8a6960eb1b60209092019182526200009991600f91620001aa565b506010805460ff19166009179055600360118190556012819055601381905560148190556015819055601655681b1ae4d6e2ef500000601755348015620000df57600080fd5b50600080546001600160a01b031916339081178255604051909182917f8be0079c531659141344cd1fd0a4f28419497f9722a3daafe3b4186f6b6457e0908290a350600a543360008181526003602090815260408083209490945581546001600160a01b03168252600681528382208054600160ff199182168117909255308452858420805490911690911790556009549351938452919290917fddf252ad1be2c89b69c2b068fc378daa952ba7f163c4a11628f55a4df523b3ef910160405180910390a3620002d2565b828054620001b89062000274565b90600052602060002090601f016020900481019282620001dc576000855562000227565b82601f10620001f757805160ff191683800117855562000227565b8280016001018555821562000227579182015b82811115620002275782518255916020019190600101906200020a565b506200023592915062000239565b5090565b5b808211156200023557600081556001016200023a565b6000828210156200026f57634e487b7160e01b81526011600452602481fd5b500390565b600181811c908216806200028957607f821691505b60208210811415620002ab57634e487b7160e01b600052602260045260246000fd5b50919050565b600082620002cd57634e487b7160e01b81526012600452602481fd5b500690565b6124ac80620002e26000396000f3fe6080604052600436106102085760003560e01c80636ac3f25411610118578063a69df4b5116100a0578063d543dbeb1161006f578063d543dbeb146105df578063dd467064146105ff578063dd62ed3e1461061f578063ea2f0b3714610665578063f2fde38b1461068557600080fd5b8063a69df4b51461056d578063a9059cbb14610582578063b6c52324146105a2578063c9330fdc146105b757600080fd5b80637d1db4a5116100e75780637d1db4a5146104b757806388f82020146104cd5780638da5cb5b1461050657806395d89b4114610538578063a457c2d71461054d57600080fd5b80636ac3f2541461044c5780636bc87c3a1461046c57806370a0823114610482578063715018a6146104a257600080fd5b8063395093511161019b57806340f8007a1161016a57806340f8007a1461039d578063437823ec146103b35780634549b039146103d357806352390c02146103f35780635342acb41461041357600080fd5b8063395093511461032757806339df43ff146103475780633b124fe7146103675780633bd5d1731461037d57600080fd5b806323b872dd116101d757806323b872dd146102a35780632d838119146102c3578063313ce567146102e35780633685d4191461030557600080fd5b806306fdde0314610214578063095ea7b31461023f57806313114a9d1461026f57806318160ddd1461028e57600080fd5b3661020f57005b600080fd5b34801561022057600080fd5b506102296106a5565b604051610236919061228f565b60405180910390f35b34801561024b57600080fd5b5061025f61025a3660046121f9565b610737565b6040519015158152602001610236565b34801561027b57600080fd5b50600b545b604051908152602001610236565b34801561029a57600080fd5b50600954610280565b3480156102af57600080fd5b5061025f6102be3660046121b9565b61074e565b3480156102cf57600080fd5b506102806102de366004612224565b6107b7565b3480156102ef57600080fd5b5060105460405160ff9091168152602001610236565b34801561031157600080fd5b50610325610320366004612165565b610840565b005b34801561033357600080fd5b5061025f6103423660046121f9565b610a2f565b34801561035357600080fd5b50610325610362366004612165565b610a65565b34801561037357600080fd5b5061028060115481565b34801561038957600080fd5b50610325610398366004612224565b610aed565b3480156103a957600080fd5b5061028060155481565b3480156103bf57600080fd5b506103256103ce366004612165565b610bd9565b3480156103df57600080fd5b506102806103ee36600461223c565b610c27565b3480156103ff57600080fd5b5061032561040e366004612165565b610cb6565b34801561041f57600080fd5b5061025f61042e366004612165565b6001600160a01b031660009081526006602052604090205460ff1690565b34801561045857600080fd5b50610325610467366004612264565b610e09565b34801561047857600080fd5b5061028060135481565b34801561048e57600080fd5b5061028061049d366004612165565b610e41565b3480156104ae57600080fd5b50610325610ea0565b3480156104c357600080fd5b5061028060175481565b3480156104d957600080fd5b5061025f6104e8366004612165565b6001600160a01b031660009081526007602052604090205460ff1690565b34801561051257600080fd5b506000546001600160a01b03165b6040516001600160a01b039091168152602001610236565b34801561054457600080fd5b50610229610f02565b34801561055957600080fd5b5061025f6105683660046121f9565b610f11565b34801561057957600080fd5b50610325610f60565b34801561058e57600080fd5b5061025f61059d3660046121f9565b611065565b3480156105ae57600080fd5b50600254610280565b3480156105c357600080fd5b5061052073893cd39d4f808b484ceeff6d3e0e3b775d1c06b881565b3480156105eb57600080fd5b506103256105fa366004612224565b611072565b34801561060b57600080fd5b5061032561061a366004612224565b6110c2565b34801561062b57600080fd5b5061028061063a366004612181565b6001600160a01b03918216600090815260056020908152604080832093909416825291909152205490565b34801561067157600080fd5b50610325610680366004612165565b611147565b34801561069157600080fd5b506103256106a0366004612165565b611192565b6060600e80546106b490612385565b80601f01602080910402602001604051908101604052809291908181526020018280546106e090612385565b801561072d5780601f106107025761010080835404028352916020019161072d565b820191906000526020600020905b81548152906001019060200180831161071057829003601f168201915b5050505050905090565b600061074433848461126a565b5060015b92915050565b60006107a2843361079d8560405180606001604052806028815260200161240a602891396001600160a01b038a166000908152600560209081526040808320338452909152902054919061138e565b61126a565b6107ad8484846113c8565b5060019392505050565b6000600a548211156108235760405162461bcd60e51b815260206004820152602a60248201527f416d6f756e74206d757374206265206c657373207468616e20746f74616c207260448201526965666c656374696f6e7360b01b60648201526084015b60405180910390fd5b600061082d6115e1565b90506108398382611604565b9392505050565b6000546001600160a01b0316331461086a5760405162461bcd60e51b815260040161081a906122e2565b6001600160a01b03811660009081526007602052604090205460ff166108d25760405162461bcd60e51b815260206004820152601b60248201527f4163636f756e7420697320616c7265616479206578636c756465640000000000604482015260640161081a565b60005b600854811015610a2b57816001600160a01b03166008828154811061090a57634e487b7160e01b600052603260045260246000fd5b6000918252602090912001546001600160a01b03161415610a1957600880546109359060019061236e565b8154811061095357634e487b7160e01b600052603260045260246000fd5b600091825260209091200154600880546001600160a01b03909216918390811061098d57634e487b7160e01b600052603260045260246000fd5b600091825260208083209190910180546001600160a01b0319166001600160a01b039485161790559184168152600482526040808220829055600790925220805460ff1916905560088054806109f357634e487b7160e01b600052603160045260246000fd5b600082815260209020810160001990810180546001600160a01b03191690550190555050565b80610a23816123c0565b9150506108d5565b5050565b3360008181526005602090815260408083206001600160a01b0387168452909152812054909161074491859061079d9086611646565b6000546001600160a01b03163314610a8f5760405162461bcd60e51b815260040161081a906122e2565b6000546001600160a01b03163314610ae15760405162461bcd60e51b81526020600482015260156024820152742cb7ba9030b932903737ba103a34329037bbb732b960591b604482015260640161081a565b806001600160a01b0316ff5b3360008181526007602052604090205460ff1615610b625760405162461bcd60e51b815260206004820152602c60248201527f4578636c75646564206164647265737365732063616e6e6f742063616c6c207460448201526b3434b990333ab731ba34b7b760a11b606482015260840161081a565b6000610b6d836116a5565b5050506001600160a01b038616600090815260036020526040902054939450610b9b93925084915050611700565b6001600160a01b038316600090815260036020526040902055600a54610bc19082611700565b600a55600b54610bd19084611646565b600b55505050565b6000546001600160a01b03163314610c035760405162461bcd60e51b815260040161081a906122e2565b6001600160a01b03166000908152600660205260409020805460ff19166001179055565b6000600954831115610c7b5760405162461bcd60e51b815260206004820152601f60248201527f416d6f756e74206d757374206265206c657373207468616e20737570706c7900604482015260640161081a565b81610c9b576000610c8b846116a5565b5094965061074895505050505050565b6000610ca6846116a5565b5093965061074895505050505050565b6000546001600160a01b03163314610ce05760405162461bcd60e51b815260040161081a906122e2565b6001600160a01b03811660009081526007602052604090205460ff1615610d495760405162461bcd60e51b815260206004820152601b60248201527f4163636f756e7420697320616c7265616479206578636c756465640000000000604482015260640161081a565b6001600160a01b03811660009081526003602052604090205415610da3576001600160a01b038116600090815260036020526040902054610d89906107b7565b6001600160a01b0382166000908152600460205260409020555b6001600160a01b03166000818152600760205260408120805460ff191660019081179091556008805491820181559091527ff3f7a9fe364faab93b216da50a3214154f22a0a2b415b23a84c8169e8b636ee30180546001600160a01b0319169091179055565b6000546001600160a01b03163314610e335760405162461bcd60e51b815260040161081a906122e2565b601192909255601355601555565b6001600160a01b03811660009081526007602052604081205460ff1615610e7e57506001600160a01b031660009081526004602052604090205490565b6001600160a01b038216600090815260036020526040902054610748906107b7565b6000546001600160a01b03163314610eca5760405162461bcd60e51b815260040161081a906122e2565b600080546040516001600160a01b0390911690600080516020612432833981519152908390a3600080546001600160a01b0319169055565b6060600f80546106b490612385565b6000610744338461079d85604051806060016040528060258152602001612452602591393360009081526005602090815260408083206001600160a01b038d168452909152902054919061138e565b6001546001600160a01b03163314610fc55760405162461bcd60e51b815260206004820152602260248201527f596f7520646f6e742068617665207065726d697373696f6e20746f20756e6c6f604482015261636b60f01b606482015260840161081a565b60025442116110165760405162461bcd60e51b815260206004820181905260248201527f436f6e7472616374206973206c6f636b656420666f72206d6f72652074696d65604482015260640161081a565b600154600080546040516001600160a01b03938416939091169160008051602061243283398151915291a3600154600080546001600160a01b0319166001600160a01b03909216919091179055565b60006107443384846113c8565b6000546001600160a01b0316331461109c5760405162461bcd60e51b815260040161081a906122e2565b6110bc60646110b68360095461174290919063ffffffff16565b90611604565b60175550565b6000546001600160a01b031633146110ec5760405162461bcd60e51b815260040161081a906122e2565b60008054600180546001600160a01b03199081166001600160a01b0384161790915516905561111b8142612317565b600255600080546040516001600160a01b0390911690600080516020612432833981519152908390a350565b6000546001600160a01b031633146111715760405162461bcd60e51b815260040161081a906122e2565b6001600160a01b03166000908152600660205260409020805460ff19169055565b6000546001600160a01b031633146111bc5760405162461bcd60e51b815260040161081a906122e2565b6001600160a01b0381166112215760405162461bcd60e51b815260206004820152602660248201527f4f776e61626c653a206e6577206f776e657220697320746865207a65726f206160448201526564647265737360d01b606482015260840161081a565b600080546040516001600160a01b038085169392169160008051602061243283398151915291a3600080546001600160a01b0319166001600160a01b0392909216919091179055565b6001600160a01b0383166112cc5760405162461bcd60e51b8152602060048201526024808201527f45524332303a20617070726f76652066726f6d20746865207a65726f206164646044820152637265737360e01b606482015260840161081a565b6001600160a01b03821661132d5760405162461bcd60e51b815260206004820152602260248201527f45524332303a20617070726f766520746f20746865207a65726f206164647265604482015261737360f01b606482015260840161081a565b6001600160a01b0383811660008181526005602090815260408083209487168084529482529182902085905590518481527f8c5be1e5ebec7d5bd14f71427d1e84f3dd0314c0f7b2291e5b200ac8c7c3b925910160405180910390a3505050565b600081848411156113b25760405162461bcd60e51b815260040161081a919061228f565b5060006113bf848661236e565b95945050505050565b6001600160a01b03831661142c5760405162461bcd60e51b815260206004820152602560248201527f45524332303a207472616e736665722066726f6d20746865207a65726f206164604482015264647265737360d81b606482015260840161081a565b6001600160a01b03821661148e5760405162461bcd60e51b815260206004820152602360248201527f45524332303a207472616e7366657220746f20746865207a65726f206164647260448201526265737360e81b606482015260840161081a565b600081116114f05760405162461bcd60e51b815260206004820152602960248201527f5472616e7366657220616d6f756e74206d7573742062652067726561746572206044820152687468616e207a65726f60b81b606482015260840161081a565b6000546001600160a01b0384811691161480159061151c57506000546001600160a01b03838116911614155b15611584576017548111156115845760405162461bcd60e51b815260206004820152602860248201527f5472616e7366657220616d6f756e74206578636565647320746865206d6178546044820152673c20b6b7bab73a1760c11b606482015260840161081a565b6001600160a01b03831660009081526006602052604090205460019060ff16806115c657506001600160a01b03831660009081526006602052604090205460ff165b156115cf575060005b6115db848484846117c1565b50505050565b60008060006115ee61193e565b90925090506115fd8282611604565b9250505090565b600061083983836040518060400160405280601a81526020017f536166654d6174683a206469766973696f6e206279207a65726f000000000000815250611af8565b6000806116538385612317565b9050838110156108395760405162461bcd60e51b815260206004820152601b60248201527f536166654d6174683a206164646974696f6e206f766572666c6f770000000000604482015260640161081a565b60008060008060008060008060008060006116bf8c611b26565b935093509350935060008060006116e08f8787876116db6115e1565b611b7b565b919f509d509b509599509397509195509350505050919395979092949650565b600061083983836040518060400160405280601e81526020017f536166654d6174683a207375627472616374696f6e206f766572666c6f77000081525061138e565b60008261175157506000610748565b600061175d838561234f565b90508261176a858361232f565b146108395760405162461bcd60e51b815260206004820152602160248201527f536166654d6174683a206d756c7469706c69636174696f6e206f766572666c6f6044820152607760f81b606482015260840161081a565b806117ce576117ce611bdd565b6001600160a01b03841660009081526007602052604090205460ff16801561180f57506001600160a01b03831660009081526007602052604090205460ff16155b156118245761181f848484611c22565b611922565b6001600160a01b03841660009081526007602052604090205460ff1615801561186557506001600160a01b03831660009081526007602052604090205460ff165b156118755761181f848484611d68565b6001600160a01b03841660009081526007602052604090205460ff161580156118b757506001600160a01b03831660009081526007602052604090205460ff16155b156118c75761181f848484611e27565b6001600160a01b03841660009081526007602052604090205460ff16801561190757506001600160a01b03831660009081526007602052604090205460ff165b156119175761181f848484611e81565b611922848484611e27565b806115db576115db601254601155601454601355601654601555565b600a546009546000918291825b600854811015611ac85782600360006008848154811061197b57634e487b7160e01b600052603260045260246000fd5b60009182526020808320909101546001600160a01b0316835282019290925260400190205411806119f457508160046000600884815481106119cd57634e487b7160e01b600052603260045260246000fd5b60009182526020808320909101546001600160a01b03168352820192909252604001902054115b15611a0a57600a54600954945094505050509091565b611a5e6003600060088481548110611a3257634e487b7160e01b600052603260045260246000fd5b60009182526020808320909101546001600160a01b031683528201929092526040019020548490611700565b9250611ab46004600060088481548110611a8857634e487b7160e01b600052603260045260246000fd5b60009182526020808320909101546001600160a01b031683528201929092526040019020548390611700565b915080611ac0816123c0565b91505061194b565b50600954600a54611ad891611604565b821015611aef57600a546009549350935050509091565b90939092509050565b60008183611b195760405162461bcd60e51b815260040161081a919061228f565b5060006113bf848661232f565b6000806000806000611b3786611f0a565b90506000611b4487611f26565b90506000611b5188611f42565b90506000611b6b82611b6585818d89611700565b90611700565b9993985091965094509092505050565b6000808080611b8a8986611742565b90506000611b988987611742565b90506000611ba68988611742565b90506000611bb48989611742565b90506000611bc882611b6585818989611700565b949d949c50929a509298505050505050505050565b601154158015611bed5750601354155b8015611bf95750601554155b15611c0057565b6011805460125560138054601455601580546016556000928390559082905555565b6000806000806000806000611c36886116a5565b9650965096509650965096509650611c7c88600460008d6001600160a01b03166001600160a01b031681526020019081526020016000205461170090919063ffffffff16565b6001600160a01b038b16600090815260046020908152604080832093909355600390522054611cab9088611700565b6001600160a01b03808c1660009081526003602052604080822093909355908b1681522054611cda9087611646565b6001600160a01b038a16600090815260036020526040902055611cfc82611f5e565b611d0581611fe7565b611d0f8584612141565b886001600160a01b03168a6001600160a01b03167fddf252ad1be2c89b69c2b068fc378daa952ba7f163c4a11628f55a4df523b3ef86604051611d5491815260200190565b60405180910390a350505050505050505050565b6000806000806000806000611d7c886116a5565b9650965096509650965096509650611dc287600360008d6001600160a01b03166001600160a01b031681526020019081526020016000205461170090919063ffffffff16565b6001600160a01b03808c16600090815260036020908152604080832094909455918c16815260049091522054611df89085611646565b6001600160a01b038a16600090815260046020908152604080832093909355600390522054611cda9087611646565b6000806000806000806000611e3b886116a5565b9650965096509650965096509650611cab87600360008d6001600160a01b03166001600160a01b031681526020019081526020016000205461170090919063ffffffff16565b6000806000806000806000611e95886116a5565b9650965096509650965096509650611edb88600460008d6001600160a01b03166001600160a01b031681526020019081526020016000205461170090919063ffffffff16565b6001600160a01b038b16600090815260046020908152604080832093909355600390522054611dc29088611700565b600061074860646110b66011548561174290919063ffffffff16565b600061074860646110b66013548561174290919063ffffffff16565b600061074860646110b66015548561174290919063ffffffff16565b6000611f686115e1565b90506000611f768383611742565b30600090815260036020526040902054909150611f939082611646565b3060009081526003602090815260408083209390935560079052205460ff1615611fe25730600090815260046020526040902054611fd19084611646565b306000908152600460205260409020555b505050565b6000611ff16115e1565b90506000611fff8383611742565b73893cd39d4f808b484ceeff6d3e0e3b775d1c06b860005260036020527f4b5e9c97926a74628cdd489fc9d09aa073cee9da4edc448818d0ac8401bcabf65490915061204b9082611646565b73893cd39d4f808b484ceeff6d3e0e3b775d1c06b86000527f4b5e9c97926a74628cdd489fc9d09aa073cee9da4edc448818d0ac8401bcabf65560076020527fdebe117c051bad9155ad05b224e866e341502c1e21ede79bb42485d841e96ffb5460ff1615611fe25773893cd39d4f808b484ceeff6d3e0e3b775d1c06b860005260046020527f9fbebf597970f5abb0c3cccf5694a323d47b8e63ae23e52152eb22c7a7813b3f546120fd9084611646565b73893cd39d4f808b484ceeff6d3e0e3b775d1c06b860005260046020527f9fbebf597970f5abb0c3cccf5694a323d47b8e63ae23e52152eb22c7a7813b3f55505050565b600a5461214e9083611700565b600a55600b5461215e9082611646565b600b555050565b600060208284031215612176578081fd5b8135610839816123f1565b60008060408385031215612193578081fd5b823561219e816123f1565b915060208301356121ae816123f1565b809150509250929050565b6000806000606084860312156121cd578081fd5b83356121d8816123f1565b925060208401356121e8816123f1565b929592945050506040919091013590565b6000806040838503121561220b578182fd5b8235612216816123f1565b946020939093013593505050565b600060208284031215612235578081fd5b5035919050565b6000806040838503121561224e578182fd5b82359150602083013580151581146121ae578182fd5b600080600060608486031215612278578283fd5b505081359360208301359350604090920135919050565b6000602080835283518082850152825b818110156122bb5785810183015185820160400152820161229f565b818111156122cc5783604083870101525b50601f01601f1916929092016040019392505050565b6020808252818101527f4f776e61626c653a2063616c6c6572206973206e6f7420746865206f776e6572604082015260600190565b6000821982111561232a5761232a6123db565b500190565b60008261234a57634e487b7160e01b81526012600452602481fd5b500490565b6000816000190483118215151615612369576123696123db565b500290565b600082821015612380576123806123db565b500390565b600181811c9082168061239957607f821691505b602082108114156123ba57634e487b7160e01b600052602260045260246000fd5b50919050565b60006000198214156123d4576123d46123db565b5060010190565b634e487b7160e01b600052601160045260246000fd5b6001600160a01b038116811461240657600080fd5b5056fe45524332303a207472616e7366657220616d6f756e74206578636565647320616c6c6f77616e63658be0079c531659141344cd1fd0a4f28419497f9722a3daafe3b4186f6b6457e045524332303a2064656372656173656420616c6c6f77616e63652062656c6f77207a65726fa264697066735822122064deb88d3be47cd0b7ec269ecb675fbdbe7c03d2227d6f9c45f37dec159df1d764736f6c63430008040033",
  "immutableReferences": {},
  "source": "pragma solidity ^0.8.4;\r\n// SPDX-License-Identifier: Unlicensed\r\n\r\ninterface IERC20 {\r\n\r\n    function totalSupply() external view returns (uint256);\r\n    function balanceOf(address account) external view returns (uint256);\r\n    function transfer(address recipient, uint256 amount) external returns (bool);\r\n    function allowance(address owner, address spender) external view returns (uint256);\r\n    function approve(address spender, uint256 amount) external returns (bool);\r\n    function transferFrom(address sender, address recipient, uint256 amount) external returns (bool);\r\n    event Transfer(address indexed from, address indexed to, uint256 value);\r\n    event Approval(address indexed owner, address indexed spender, uint256 value);\r\n}\r\n\r\nlibrary SafeMath {\r\n\r\n    function add(uint256 a, uint256 b) internal pure returns (uint256) {\r\n        uint256 c = a + b;\r\n        require(c >= a, \"SafeMath: addition overflow\");\r\n        return c;\r\n    }\r\n\r\n    function sub(uint256 a, uint256 b) internal pure returns (uint256) {\r\n        return sub(a, b, \"SafeMath: subtraction overflow\");\r\n    }\r\n\r\n    function sub(uint256 a, uint256 b, string memory errorMessage) internal pure returns (uint256) {\r\n        require(b <= a, errorMessage);\r\n        uint256 c = a - b;\r\n        return c;\r\n    }\r\n\r\n    function mul(uint256 a, uint256 b) internal pure returns (uint256) {\r\n        if (a == 0) {\r\n            return 0;\r\n        }\r\n        uint256 c = a * b;\r\n        require(c / a == b, \"SafeMath: multiplication overflow\");\r\n        return c;\r\n    }\r\n\r\n    function div(uint256 a, uint256 b) internal pure returns (uint256) {\r\n        return div(a, b, \"SafeMath: division by zero\");\r\n    }\r\n\r\n    function div(uint256 a, uint256 b, string memory errorMessage) internal pure returns (uint256) {\r\n        require(b > 0, errorMessage);\r\n        uint256 c = a / b;\r\n        return c;\r\n    }\r\n\r\n    function mod(uint256 a, uint256 b) internal pure returns (uint256) {\r\n        return mod(a, b, \"SafeMath: modulo by zero\");\r\n    }\r\n\r\n    function mod(uint256 a, uint256 b, string memory errorMessage) internal pure returns (uint256) {\r\n        require(b != 0, errorMessage);\r\n        return a % b;\r\n    }\r\n}\r\n\r\nabstract contract Context {\r\n    function _msgSender() internal view virtual returns (address payable) {\r\n        return payable(msg.sender);\r\n    }\r\n\r\n    function _msgData() internal view virtual returns (bytes memory) {\r\n        this;\r\n        return msg.data;\r\n    }\r\n}\r\n\r\nlibrary Address {\r\n\r\n    function isContract(address account) internal view returns (bool) {\r\n        // According to EIP-1052, 0x0 is the value returned for not-yet created accounts\r\n        // and 0xc5d2460186f7233c927e7db2dcc703c0e500b653ca82273b7bfad8045d85a470 is returned\r\n        // for accounts without code, i.e. `keccak256('')`\r\n        // The account hash of 0xc5d2460186f7233c927e7db2dcc703c0e500b653ca82273b7bfad8045d85a470 is returned for non-contract addresses,\r\n        // so-called Externally Owned Account (EOA)\r\n        bytes32 codehash;\r\n        bytes32 accountHash = 0xc5d2460186f7233c927e7db2dcc703c0e500b653ca82273b7bfad8045d85a470;\r\n        assembly { codehash := extcodehash(account) }\r\n        return (codehash != accountHash && codehash != 0x0);\r\n    }\r\n\r\n    function sendValue(address payable recipient, uint256 amount) internal {\r\n        require(address(this).balance >= amount, \"Address: insufficient balance\");\r\n        (bool success, ) = recipient.call{ value: amount }(\"\");\r\n        require(success, \"Address: unable to send value, recipient may have reverted\");\r\n    }\r\n\r\n    function functionCall(address target, bytes memory data) internal returns (bytes memory) {\r\n        return functionCall(target, data, \"Address: low-level call failed\");\r\n    }\r\n\r\n    function functionCall(address target, bytes memory data, string memory errorMessage) internal returns (bytes memory) {\r\n        return _functionCallWithValue(target, data, 0, errorMessage);\r\n    }\r\n\r\n    function functionCallWithValue(address target, bytes memory data, uint256 value) internal returns (bytes memory) {\r\n        return functionCallWithValue(target, data, value, \"Address: low-level call with value failed\");\r\n    }\r\n\r\n    function functionCallWithValue(address target, bytes memory data, uint256 value, string memory errorMessage) internal returns (bytes memory) {\r\n        require(address(this).balance >= value, \"Address: insufficient balance for call\");\r\n        return _functionCallWithValue(target, data, value, errorMessage);\r\n    }\r\n\r\n    function _functionCallWithValue(address target, bytes memory data, uint256 weiValue, string memory errorMessage) private returns (bytes memory) {\r\n        require(isContract(target), \"Address: call to non-contract\");\r\n        (bool success, bytes memory returndata) = target.call{ value: weiValue }(data);\r\n        if (success) {\r\n            return returndata;\r\n        } else {\r\n            if (returndata.length > 0) {\r\n                assembly {\r\n                    let returndata_size := mload(returndata)\r\n                    revert(add(32, returndata), returndata_size)\r\n                }\r\n            } else {\r\n                revert(errorMessage);\r\n            }\r\n        }\r\n    }\r\n}\r\n\r\ncontract Ownable is Context {\r\n    address private _owner;\r\n    address private _previousOwner;\r\n    uint256 private _lockTime;\r\n\r\n    event OwnershipTransferred(address indexed previousOwner, address indexed newOwner);\r\n\r\n    constructor () {\r\n        address msgSender = _msgSender();\r\n        _owner = msgSender;\r\n        emit OwnershipTransferred(address(0), msgSender);\r\n    }\r\n\r\n    function owner() public view returns (address) {\r\n        return _owner;\r\n    }\r\n\r\n    modifier onlyOwner() {\r\n        require(_owner == _msgSender(), \"Ownable: caller is not the owner\");\r\n        _;\r\n    }\r\n\r\n    function renounceOwnership() public virtual onlyOwner {\r\n        emit OwnershipTransferred(_owner, address(0));\r\n        _owner = address(0);\r\n    }\r\n\r\n    function transferOwnership(address newOwner) public virtual onlyOwner {\r\n        require(newOwner != address(0), \"Ownable: new owner is the zero address\");\r\n        emit OwnershipTransferred(_owner, newOwner);\r\n        _owner = newOwner;\r\n    }\r\n\r\n    function geUnlockTime() public view returns (uint256) {\r\n        return _lockTime;\r\n    }\r\n\r\n    function lock(uint256 time) public virtual onlyOwner {\r\n        _previousOwner = _owner;\r\n        _owner = address(0);\r\n        _lockTime = block.timestamp + time;\r\n        emit OwnershipTransferred(_owner, address(0));\r\n    }\r\n\r\n    function unlock() public virtual {\r\n        require(_previousOwner == msg.sender, \"You dont have permission to unlock\");\r\n        require(block.timestamp > _lockTime , \"Contract is locked for more time\");\r\n        emit OwnershipTransferred(_owner, _previousOwner);\r\n        _owner = _previousOwner;\r\n    }\r\n}\r\n\r\ncontract SuperHToken is Context, IERC20, Ownable {\r\n    using SafeMath for uint256;\r\n    using Address for address;\r\n\r\n    mapping (address => uint256) private _rOwned;\r\n    mapping (address => uint256) private _tOwned;\r\n    mapping (address => mapping (address => uint256)) private _allowances;\r\n\r\n    mapping (address => bool) private _isExcludedFromFee;\r\n\r\n    mapping (address => bool) private _isExcluded;\r\n    address[] private _excluded;\r\n\r\n    uint256 private constant MAX = ~uint256(0);\r\n    uint256 private _tTotal = 100000000 * 10**6 * 10**9; // TOTAL Aei onlineMOUNT : 100.000.000.000.000 tokens\r\n    uint256 private _rTotal = (MAX - (MAX % _tTotal));\r\n    uint256 private _tFeeTotal;\r\n\r\n    uint256 private constant MONTH = 2628000; // 31536000/12 ;\r\n    uint256 private constant DAYS = 86400; // 31536000/365 ;\r\n    uint256 private _startTimestamp;\r\n    uint256 private _LockingPeriodDays = 30; // Locking time for locking liquidity in days\r\n\r\n    string private _name = \"Test SuperH\";\r\n    string private _symbol = \"TSH\";\r\n    uint8 private _decimals = 9;\r\n\r\n    uint256 public _taxFee = 3; // 3% redistribuition to SuperH holders\r\n    uint256 private _previousTaxFee = _taxFee;\r\n\r\n    uint256 public _liquidityFee = 3; // 3% fee auto add to the liquidity pool to locked forever when selling\r\n    uint256 private _previousLiquidityFee = _liquidityFee;\r\n\r\n    uint256 public _charityFee = 3; // 3% fee auto add to charity wallet\r\n    uint256 private _previousCharityFee = _charityFee;\r\n\r\n    uint256 public _maxTxAmount = 500000 * 10**6 * 10**9; // Max transferrable in one transaction (1% of _tTotal after initial burning of 50% of total tokens)\r\n\r\n    //address public constant CHARITY_ADDRESS = 0x1021910Af0F9e86277b12a8194Eb0c9954380eB1; //charity address\r\n    address public constant CHARITY_ADDRESS = 0x893cd39d4f808b484ceeff6d3e0E3b775d1c06b8; //charity address for test\r\n\r\n    constructor ()  {\r\n        _rOwned[_msgSender()] = _rTotal;\r\n        //exclude owner and this contract from fee\r\n        _isExcludedFromFee[owner()] = true;\r\n        _isExcludedFromFee[address(this)] = true;\r\n\r\n        emit Transfer(address(0), _msgSender(), _tTotal);\r\n    }\r\n\r\n    function name() public view returns (string memory) {\r\n        return _name;\r\n    }\r\n\r\n    function symbol() public view returns (string memory) {\r\n        return _symbol;\r\n    }\r\n\r\n    function decimals() public view returns (uint8) {\r\n        return _decimals;\r\n    }\r\n\r\n    function totalSupply() public view override returns (uint256) {\r\n        return _tTotal;\r\n    }\r\n\r\n    function balanceOf(address account) public view override returns (uint256) {\r\n        if (_isExcluded[account]) return _tOwned[account];\r\n        return tokenFromReflection(_rOwned[account]);\r\n    }\r\n\r\n    function transfer(address recipient, uint256 amount) public override returns (bool) {\r\n        _transfer(_msgSender(), recipient, amount);\r\n        return true;\r\n    }\r\n\r\n    function allowance(address owner, address spender) public view override returns (uint256) {\r\n        return _allowances[owner][spender];\r\n    }\r\n\r\n    function approve(address spender, uint256 amount) public override returns (bool) {\r\n        _approve(_msgSender(), spender, amount);\r\n        return true;\r\n    }\r\n\r\n    function transferFrom(address sender, address recipient, uint256 amount) public override returns (bool) {\r\n        _approve(sender, _msgSender(), _allowances[sender][_msgSender()].sub(amount, \"ERC20: transfer amount exceeds allowance\"));\r\n        _transfer(sender, recipient, amount);\r\n        return true;\r\n    }\r\n\r\n    function increaseAllowance(address spender, uint256 addedValue) public virtual returns (bool) {\r\n        _approve(_msgSender(), spender, _allowances[_msgSender()][spender].add(addedValue));\r\n        return true;\r\n    }\r\n\r\n    function decreaseAllowance(address spender, uint256 subtractedValue) public virtual returns (bool) {\r\n        _approve(_msgSender(), spender, _allowances[_msgSender()][spender].sub(subtractedValue, \"ERC20: decreased allowance below zero\"));\r\n        return true;\r\n    }\r\n\r\n    function isExcludedFromReward(address account) public view returns (bool) {\r\n        return _isExcluded[account];\r\n    }\r\n\r\n    function totalFees() public view returns (uint256) {\r\n        return _tFeeTotal;\r\n    }\r\n\r\n    function deliver(uint256 tAmount) public {\r\n        address sender = _msgSender();\r\n        require(!_isExcluded[sender], \"Excluded addresses cannot call this function\");\r\n        (uint256 rAmount,,,,,,) = _getValues(tAmount);\r\n        _rOwned[sender] = _rOwned[sender].sub(rAmount);\r\n        _rTotal = _rTotal.sub(rAmount);\r\n        _tFeeTotal = _tFeeTotal.add(tAmount);\r\n    }\r\n\r\n    function reflectionFromToken(uint256 tAmount, bool deductTransferFee) public view returns(uint256) {\r\n        require(tAmount <= _tTotal, \"Amount must be less than supply\");\r\n        if (!deductTransferFee) {\r\n            (uint256 rAmount,,,,,,) = _getValues(tAmount);\r\n            return rAmount;\r\n        } else {\r\n            (,uint256 rTransferAmount,,,,,) = _getValues(tAmount);\r\n            return rTransferAmount;\r\n        }\r\n    }\r\n\r\n    function tokenFromReflection(uint256 rAmount) public view returns(uint256) {\r\n        require(rAmount <= _rTotal, \"Amount must be less than total reflections\");\r\n        uint256 currentRate =  _getRate();\r\n        return rAmount.div(currentRate);\r\n    }\r\n\r\n    function excludeFromReward(address account) public onlyOwner() {\r\n        // require(account != 0x7a250d5630B4cF539739dF2C5dAcb4c659F2488D, 'We can not exclude Uniswap router.');\r\n        require(!_isExcluded[account], \"Account is already excluded\");\r\n        if(_rOwned[account] > 0) {\r\n            _tOwned[account] = tokenFromReflection(_rOwned[account]);\r\n        }\r\n        _isExcluded[account] = true;\r\n        _excluded.push(account);\r\n    }\r\n\r\n    function includeInReward(address account) external onlyOwner() {\r\n        require(_isExcluded[account], \"Account is already excluded\");\r\n        for (uint256 i = 0; i < _excluded.length; i++) {\r\n            if (_excluded[i] == account) {\r\n                _excluded[i] = _excluded[_excluded.length - 1];\r\n                _tOwned[account] = 0;\r\n                _isExcluded[account] = false;\r\n                _excluded.pop();\r\n                break;\r\n            }\r\n        }\r\n    }\r\n    function _transferBothExcluded(address sender, address recipient, uint256 tAmount) private {\r\n        (uint256 rAmount, uint256 rTransferAmount, uint256 rFee, uint256 tTransferAmount, uint256 tFee, uint256 tLiquidity, uint256 tCharity) = _getValues(tAmount);\r\n        _tOwned[sender] = _tOwned[sender].sub(tAmount);\r\n        _rOwned[sender] = _rOwned[sender].sub(rAmount);\r\n        _tOwned[recipient] = _tOwned[recipient].add(tTransferAmount);\r\n        _rOwned[recipient] = _rOwned[recipient].add(rTransferAmount);\r\n        _takeLiquidity(tLiquidity);\r\n        _takeCharity(tCharity);\r\n        _reflectFee(rFee, tFee);\r\n        emit Transfer(sender, recipient, tTransferAmount);\r\n    }\r\n\r\n    function excludeFromFee(address account) public onlyOwner {\r\n        _isExcludedFromFee[account] = true;\r\n    }\r\n\r\n    function includeInFee(address account) public onlyOwner {\r\n        _isExcludedFromFee[account] = false;\r\n    }\r\n\r\n    function setFeePercent(uint256 taxFee, uint256 liquidityFee, uint256 charityFee) external onlyOwner() {\r\n        _taxFee = taxFee;\r\n        _liquidityFee = liquidityFee;\r\n        _charityFee = charityFee;\r\n    }\r\n\r\n    function setMaxTxPercent(uint256 maxTxPercent) external onlyOwner() {\r\n        _maxTxAmount = _tTotal.mul(maxTxPercent).div(\r\n            10**2\r\n        );\r\n    }\r\n\r\n    receive() external payable {}\r\n\r\n    function _reflectFee(uint256 rFee, uint256 tFee) private {\r\n        _rTotal = _rTotal.sub(rFee);\r\n        _tFeeTotal = _tFeeTotal.add(tFee);\r\n    }\r\n\r\n    function _getValues(uint256 tAmount) private view returns (uint256, uint256, uint256, uint256, uint256, uint256, uint256) {\r\n        (uint256 tTransferAmount, uint256 tFee, uint256 tLiquidity, uint256 tCharity) = _getTValues(tAmount);\r\n        (uint256 rAmount, uint256 rTransferAmount, uint256 rFee) = _getRValues(tAmount, tFee, tLiquidity, tCharity, _getRate());\r\n        return (rAmount, rTransferAmount, rFee, tTransferAmount, tFee, tLiquidity, tCharity);\r\n    }\r\n\r\n    function _getTValues(uint256 tAmount) private view returns (uint256, uint256, uint256, uint256) {\r\n        uint256 tFee = calculateTaxFee(tAmount);\r\n        uint256 tLiquidity = calculateLiquidityFee(tAmount);\r\n        uint256 tCharity = calculateCharityFee(tAmount);\r\n        uint256 tTransferAmount = tAmount.sub(tFee).sub(tLiquidity).sub(tCharity);\r\n        return (tTransferAmount, tFee, tLiquidity, tCharity);\r\n    }\r\n\r\n    function _getRValues(uint256 tAmount, uint256 tFee, uint256 tLiquidity, uint256 tCharity, uint256 currentRate) private pure returns (uint256, uint256, uint256) {\r\n        uint256 rAmount = tAmount.mul(currentRate);\r\n        uint256 rFee = tFee.mul(currentRate);\r\n        uint256 rLiquidity = tLiquidity.mul(currentRate);\r\n        uint256 rCharity = tCharity.mul(currentRate);\r\n        uint256 rTransferAmount = rAmount.sub(rFee).sub(rLiquidity).sub(rCharity);\r\n        return (rAmount, rTransferAmount, rFee);\r\n    }\r\n\r\n    function _getRate() private view returns(uint256) {\r\n        (uint256 rSupply, uint256 tSupply) = _getCurrentSupply();\r\n        return rSupply.div(tSupply);\r\n    }\r\n\r\n    function _getCurrentSupply() private view returns(uint256, uint256) {\r\n        uint256 rSupply = _rTotal;\r\n        uint256 tSupply = _tTotal;\r\n        for (uint256 i = 0; i < _excluded.length; i++) {\r\n            if (_rOwned[_excluded[i]] > rSupply || _tOwned[_excluded[i]] > tSupply) return (_rTotal, _tTotal);\r\n            rSupply = rSupply.sub(_rOwned[_excluded[i]]);\r\n            tSupply = tSupply.sub(_tOwned[_excluded[i]]);\r\n        }\r\n        if (rSupply < _rTotal.div(_tTotal)) return (_rTotal, _tTotal);\r\n        return (rSupply, tSupply);\r\n    }\r\n\r\n    function _takeLiquidity(uint256 tLiquidity) private {\r\n        uint256 currentRate =  _getRate();\r\n        uint256 rLiquidity = tLiquidity.mul(currentRate);\r\n        _rOwned[address(this)] = _rOwned[address(this)].add(rLiquidity);\r\n        if(_isExcluded[address(this)])\r\n            _tOwned[address(this)] = _tOwned[address(this)].add(tLiquidity);\r\n    }\r\n\r\n    function _takeCharity(uint256 tCharity) private {\r\n        uint256 currentRate =  _getRate();\r\n        uint256 rCharity = tCharity.mul(currentRate);\r\n        _rOwned[CHARITY_ADDRESS] = _rOwned[CHARITY_ADDRESS].add(rCharity);\r\n        if(_isExcluded[CHARITY_ADDRESS])\r\n            _tOwned[CHARITY_ADDRESS] = _tOwned[CHARITY_ADDRESS].add(tCharity);\r\n    }\r\n\r\n    function calculateTaxFee(uint256 _amount) private view returns (uint256) {\r\n        return _amount.mul(_taxFee).div(10**2);\r\n    }\r\n\r\n    function calculateLiquidityFee(uint256 _amount) private view returns (uint256) {\r\n        return _amount.mul(_liquidityFee).div(10**2);\r\n    }\r\n\r\n    function calculateCharityFee(uint256 _amount) private view returns (uint256) {\r\n        return _amount.mul(_charityFee).div(10**2);\r\n    }\r\n\r\n    function removeAllFee() private {\r\n        if(_taxFee == 0 && _liquidityFee == 0 && _charityFee == 0) return;\r\n\r\n        _previousTaxFee = _taxFee;\r\n        _previousLiquidityFee = _liquidityFee;\r\n        _previousCharityFee = _charityFee;\r\n\r\n        _taxFee = 0;\r\n        _liquidityFee = 0;\r\n        _charityFee = 0;\r\n    }\r\n\r\n    function restoreAllFee() private {\r\n        _taxFee = _previousTaxFee;\r\n        _liquidityFee = _previousLiquidityFee;\r\n        _charityFee = _previousCharityFee;\r\n    }\r\n\r\n    function isExcludedFromFee(address account) public view returns(bool) {\r\n        return _isExcludedFromFee[account];\r\n    }\r\n\r\n    function _approve(address owner, address spender, uint256 amount) private {\r\n        require(owner != address(0), \"ERC20: approve from the zero address\");\r\n        require(spender != address(0), \"ERC20: approve to the zero address\");\r\n\r\n        _allowances[owner][spender] = amount;\r\n        emit Approval(owner, spender, amount);\r\n    }\r\n\r\n    function _transfer(\r\n        address from,\r\n        address to,\r\n        uint256 amount\r\n    ) private {\r\n        require(from != address(0), \"ERC20: transfer from the zero address\");\r\n        require(to != address(0), \"ERC20: transfer to the zero address\");\r\n        require(amount > 0, \"Transfer amount must be greater than zero\");\r\n        if(from != owner() && to != owner())\r\n            require(amount <= _maxTxAmount, \"Transfer amount exceeds the maxTxAmount.\");\r\n\r\n        //indicates if fee should be deducted from transfer\r\n        bool takeFee = true;\r\n\r\n        if(_isExcludedFromFee[from] || _isExcludedFromFee[to]){\r\n            takeFee = false;\r\n        }\r\n        //transfer amount, it will take redistribuition fee, charity fee, liquidity fee\r\n        _tokenTransfer(from,to,amount,takeFee);\r\n    }\r\n\r\n    //this method is responsible for taking all fee, if takeFee is true\r\n    function _tokenTransfer(address sender, address recipient, uint256 amount, bool takeFee) private {\r\n        if(!takeFee)\r\n            removeAllFee();\r\n\r\n        if (_isExcluded[sender] && !_isExcluded[recipient]) {\r\n            _transferFromExcluded(sender, recipient, amount);\r\n        } else if (!_isExcluded[sender] && _isExcluded[recipient]) {\r\n            _transferToExcluded(sender, recipient, amount);\r\n        } else if (!_isExcluded[sender] && !_isExcluded[recipient]) {\r\n            _transferStandard(sender, recipient, amount);\r\n        } else if (_isExcluded[sender] && _isExcluded[recipient]) {\r\n            _transferBothExcluded(sender, recipient, amount);\r\n        } else {\r\n            _transferStandard(sender, recipient, amount);\r\n        }\r\n\r\n        if(!takeFee)\r\n            restoreAllFee();\r\n    }\r\n\r\n    function _transferStandard(address sender, address recipient, uint256 tAmount) private {\r\n        (uint256 rAmount, uint256 rTransferAmount, uint256 rFee, uint256 tTransferAmount, uint256 tFee, uint256 tLiquidity, uint256 tCharity) = _getValues(tAmount);\r\n        _rOwned[sender] = _rOwned[sender].sub(rAmount);\r\n        _rOwned[recipient] = _rOwned[recipient].add(rTransferAmount);\r\n        _takeLiquidity(tLiquidity);\r\n        _takeCharity(tCharity);\r\n        _reflectFee(rFee, tFee);\r\n        emit Transfer(sender, recipient, tTransferAmount);\r\n    }\r\n\r\n    function _transferToExcluded(address sender, address recipient, uint256 tAmount) private {\r\n        (uint256 rAmount, uint256 rTransferAmount, uint256 rFee, uint256 tTransferAmount, uint256 tFee, uint256 tLiquidity, uint256 tCharity) = _getValues(tAmount);\r\n        _rOwned[sender] = _rOwned[sender].sub(rAmount);\r\n        _tOwned[recipient] = _tOwned[recipient].add(tTransferAmount);\r\n        _rOwned[recipient] = _rOwned[recipient].add(rTransferAmount);\r\n        _takeLiquidity(tLiquidity);\r\n        _takeCharity(tCharity);\r\n        _reflectFee(rFee, tFee);\r\n        emit Transfer(sender, recipient, tTransferAmount);\r\n    }\r\n\r\n    function _transferFromExcluded(address sender, address recipient, uint256 tAmount) private {\r\n        (uint256 rAmount, uint256 rTransferAmount, uint256 rFee, uint256 tTransferAmount, uint256 tFee, uint256 tLiquidity, uint256 tCharity) = _getValues(tAmount);\r\n        _tOwned[sender] = _tOwned[sender].sub(tAmount);\r\n        _rOwned[sender] = _rOwned[sender].sub(rAmount);\r\n        _rOwned[recipient] = _rOwned[recipient].add(rTransferAmount);\r\n        _takeLiquidity(tLiquidity);\r\n        _takeCharity(tCharity);\r\n        _reflectFee(rFee, tFee);\r\n        emit Transfer(sender, recipient, tTransferAmount);\r\n    }\r\n\r\n    function destroySmartContract(address payable _to) public onlyOwner {\r\n        require(msg.sender == owner(), \"You are not the owner\");\r\n        selfdestruct(_to);\r\n    }\r\n}\r\n",
  "sourcePath": "C:/Dati/Progetti/BlockChain/Projects/SuperHolder/contracts/SuperH.sol",
  "compiler": {
    "name": "solc",
    "version": "0.8.4+commit.c7e474f2.Emscripten.clang"
  },
  "schemaVersion": "3.3.4",
  "updatedAt": "2021-06-15T08:32:53.888Z",
  "networkType": "ethereum",
  "devdoc": {
    "kind": "dev",
    "methods": {},
    "version": 1
  },
  "userdoc": {
    "kind": "user",
    "methods": {},
    "version": 1
  }
}